:020000040800F2
:1000000040080020D5000008015600087945000886
:1000100000000000000000000000000000000000E0
:10002000000000000000000000000000F95A000875
:100030000000000000000000055600084D5B0008AD
:10004000E700000800000000E7000008E7000008E3
:10005000E7000008E7000008E7000008E7000008E4
:1000600000000000050B0008E7000008E70000089A
:10007000E7000008E7000008E700000800000000B3
:10008000E70000080000000000000000D95B000845
:1000900000000000E7000008E7000008E700000893
:1000A000E7000008E7000008E7000008E700000894
:1000B000E700000800000000000000000000000051
:1000C0000348854600F0A4FB00480047816900080A
:1000D000400800200448804704480047FEE7FEE748
:1000E000FEE7FEE7FEE7FEE7D75B0008C100000879
:1000F000D2B201E00270401C491EFBD270470022C0
:10010000F6E710B513460A4604461946FFF7F0FF16
:10011000204610BDF8B502464A40D40F42004B00BD
:1001200052085B089A4202D20246084611464A002B
:1001300023D0C30D4A00DDB2120EAD1A202D35DAE0
:1001400049020126490AF6058A19002C00D05242BC
:1001500020214F1B1146B9402A411018C20D9A4266
:1001600021D0002C17D0012D08DCDA05801AD20F1F
:100170008019D207DBB200F0B2FAF8BDDA05801AB6
:10018000012340001B06C01880185A428018CA0F6D
:100190001043490007E04908C2071143DA05801AF5
:1001A00080194008801800F092FAF8BD6100012221
:1001B000511A001BF7E70122D2075140AAE701229A
:1001C000D2075040A6E7024670B54A40D30FDB077E
:1001D00040002DD04A002AD0010E140E0002120257
:1001E0000919400A520A8418E50104465443000ADA
:1001F000120A2E045043A4194219200CC543AA1810
:10020000120C0125AD03521C521912047F3924042B
:1002100000D0521C104301D44000491EC2B20C064B
:10022000C0092018401C4008802A02D003E00020AA
:1002300070BD40084000002900DA0020184370BD5E
:1002400070B502464A40D50F40004A00ED0740080D
:100250005208002814D0002A12D0C40DD30D410238
:100260000120C0055202490A520AE41A091812185C
:100270007D34914201D3641C00E04900002C01DA76
:10028000002070BD0023914201D3891A0343400826
:1002900049000028F7D100290AD0914202D101215A
:1002A000C90705E0914201D2012101E00121C943C2
:1002B000E005C018401900F00AFA70BDF0B5074615
:1002C0000846584087B0C00F049048000E465900B9
:1002D00040084908BC1A884105D2384631461E46B6
:1002E00017460B4602465800400810434CD0300DCC
:1002F000039040055900400D490D0590401A0290A9
:10030000402872DA18030121000B09050843019007
:1003100004980092002805D001995242002088419B
:1003200000920190029840210A1A0199009800F069
:100330009AF905460C466B4607CB00F0B5F9C01993
:100340007141039A0E0D0023D71756401A467A4082
:10035000164344D0049A002A2DD0029A012A039A07
:1003600015DC1205C01A914101263605001C7141A9
:10037000D20F059ED2070093019202962A46234689
:1003800000F0F3F907B0F0BD38463146FAE716053C
:10039000224A0F46B218C01AB74101210905001CB4
:1003A0004F4100187F41114618187941E20F104360
:1003B0006D19644113E0E2076D0815436408C20734
:1003C0001443039A01261205C01A91413605001CF8
:1003D0007141CE07400830434908C01851412A46B0
:1003E000234600F0B5F9CDE7FFE70498012240006D
:1003F000C117121A00238B4104983146C417381ACA
:10040000A141EEE730B40124E407634030BC55E776
:1004100030B40124E407614030BC4FE70000E0FF46
:10042000F0B51FB488B00B99099800244840099989
:10043000C00F490049080991C0070B990090490075
:1004400049080B9109990898A64608431CD00B99B6
:100450000A98084318D0099801244000420D48002A
:10046000410D099824050003000B204309900B98C7
:100470000003000B20430B9050181C494018002229
:1004800001901446104605E0002001460DB0F0BD75
:10049000032801DA034600E003239C46C11A0AAE92
:1004A0000AE05F0008ADED5B4F00F75B7D4300277E
:1004B000AA187C41491C5B1E6145F2DD410004AB7A
:1004C0005A522104120C0A43240C401C0828DFDB7A
:1004D000019802900099704601910090059B049A42
:1004E0000799069800F041F9D0E700000DFCFFFFE6
:1004F0000122D207002800DB101A002900DB511A64
:10050000814201D801207047002070470122D207A4
:10051000002800DB101A002900DB511A814201D2A9
:1005200001207047002070470122D207002800DB1D
:10053000101A002900DB511A814201D301207047B3
:10054000002070470122D207002800DB101A002982
:1005500000DB511A814201D9012070470020704709
:10056000C217C10F504010B54018CA07962300218A
:1005700000F0B5F810BD10B500229623114600F02A
:10058000AEF810BD0EB5C217C10F5040CA074018D3
:100590000021054B0293019200910A460B4600F0A0
:1005A000E4F803B000BD000033040000C20F4100B6
:1005B00040020123400ADB05D207090EC0187F293B
:1005C00001DA00207047962903DC9623591AC840A7
:1005D00001E096398840002AF4D04042704700007C
:1005E00070B5CD0F4A0009030123090B1B05194300
:1005F0000B4BED070024520D9A4201DA002070BD2A
:10060000074B34339A4203DC9A1A00F03CF802E0BC
:100610000449511888402C43F1D0404270BD00007D
:10062000FF030000CDFBFFFF70B50446002903D097
:1006300000202022012310E0002801D00020C04328
:10064000C046C0460DE02546D5408D4205D30D4637
:100650009540641B1D46954040191546521E002DBD
:10066000F1DC214670BD10B5202A04DB0146203A9A
:100670009140002010BD914020239C1A0346E34086
:100680001943904010BD10B5202A04DB0846203ADB
:10069000D040002110BD0B46D340D0402024A21AE8
:1006A00091400843194610BD10B5202A06DBCB1730
:1006B0000846203A1041C1170B4306E00B46134190
:1006C000D0402024A21A91400843194610BD0029A9
:1006D00004DA401C490001D140084000704770B462
:1006E0000024050C05D11024000402D1002921D0DA
:1006F0001124050E01D100020834050F01D10001BB
:10070000241D850F01D18000A41C002801DB4000BE
:10071000641C002908D020252E1B0D46F540A14061
:1007200000D001212943084301061B1B000ADB1DE1
:1007300002D5002070BC7047DB051818801800290E
:10074000F8DA401C4900F5D170BC40084000704701
:1007500010B5002B08DA0024401C614192185B415F
:100760001A4301D14008400010BDF0B51FB482B05B
:1007700005460C0003D0084606F0F2F902E006F048
:10078000EFF920300246009021462846FFF76BFF24
:10079000049B059A04460F4618431143084314D09E
:1007A000184610431BD0009840210A1A1846059994
:1007B000FFF769FF05460E46009A05990498FFF772
:1007C00052FF084305D0012004E02046394607B017
:1007D000F0BD0020C11705430E432C433743009959
:1007E0000E986305401A7905E40A00220C43FD0ABD
:1007F0000A3002D500200146E9E7010510196941D8
:100800000C9C0D9D00196941FFF7A2FFDFE7000076
:10081000064C0125064E05E0E36807CC2B430C3C53
:1008200098471034B442F7D3FFF74EFCEC6B000846
:100830000C6C000880B582B001900198806A00902D
:100840000098806D5021084240D1FFE70099886DE3
:1008500001225202104388650098006804F01AFCD7
:1008600000282FD0FFE70098807E00282AD1FFE7DC
:100870000098006800680007002822D5FFE700986C
:10088000006804F0FEFB00280FD1FFE70098016824
:1008900048680C22904348600098806D012108430D
:1008A00009028843009988650AE00099886D202232
:1008B000104388650099C86D01221043C865FFE7A1
:1008C000FFE7FFE7009800F04FFD10E00098806D13
:1008D000C006002804D5FFE7009800F04DFD05E0B4
:1008E0000098006D416B01988847FFE7FFE702B071
:1008F00080BD80B582B001900198806A0090009917
:10090000886D4022104388650099C86D0422104309
:10091000C865009800F030FD02B080BD80B582B09F
:1009200001900198806A0090009800F021FD02B0CB
:1009300080BD000080B584B0029000200090029835
:10094000006804F08CFB00286BD1FFE70298006878
:100950008068384908420DD0FFE70299886D10225F
:1009600010438865029AD16D01200143D16503A926
:1009700008705AE00298006804F040FB2E4804F02A
:1009800057FB0002002811D5FFE72C4800682C49CE
:10099000FFF74AFE401C0090FFE70098002804D0B3
:1009A000FFE70098401E0090F7E7FFE70298407EBF
:1009B000012835D0FFE701F0EDFB0190FFE7029839
:1009C00000680068C007002829D1FFE70298006886
:1009D00004F045FB002805D1FFE70298006804F009
:1009E0000DFBFFE701F0D6FB0199401A032815D350
:1009F000FFE7029800680068C00700280DD1FFE7F4
:100A00000299886D102210438865029AD16D0120E9
:100A10000143D16503A9087007E0FFE7CFE7FFE7CF
:100A2000FFE703A900200870FFE703A8007804B0DF
:100A300080BDC0461700008008270140400000200C
:100A4000400D030010B586B005A900200870049081
:100A50000390029030480078002847D0FFE72E49E5
:100A60000020087005A90870FFE705A80078312864
:100A70001FDCFFE705AA1178062003464B432049F7
:100A8000CC5A029B1B1902931478034663435B18EC
:100A90005C88039B1B19039312785043401881888C
:100AA000049840180490FFE70598401C05A90870B9
:100AB000DBE70F480068009002983221FFF7B4FD91
:100AC000FFF759FD0B490968FFF775FB0A49FFF766
:100AD00021FB01460098094A12680192FFF773FB57
:100AE0000199FFF717FB6B490860FFE706B010BDDF
:100AF0003400002044000020000040C00C02002010
:100B00009200002080B5034800F0D8FE0249012081
:100B1000087080BD840200209000002080B582B063
:100B200001900199086C032290430B4A8018486495
:100B30000198007808381421FFF776FD009001999C
:100B40000648886400991F200140012088400199CF
:100B5000C86402B080BDC046000802408008024060
:100B600082B00190019840683F21084000900098B1
:100B700080000849401801990865019906484865B0
:100B80000098411E0320014001208840019988659A
:100B900002B07047FC0802404009024084B0039054
:100BA0000291019200930399C86C896C4860039884
:100BB000006D002805D0FFE70399886D496D4860F6
:100BC000FFE70398006C1C21084001228240104975
:100BD0000868104308600098039909684860039802
:100BE0008068102809D1FFE7019803990968886097
:100BF000029803990968C86008E002980399096897
:100C00008860019803990968C860FFE704B07047DD
:100C10000400024080B51E480078032824DBFFE76B
:100C20001B48007809281FDCFFE71A4800681A49AA
:100C3000FFF77AFC002805D1FFE718490888401C17
:100C4000088003E0154900200880FFE7134800886A
:100C50001F2804DBFFE712490120087003E0104958
:100C600000200870FFE7FFE70D480078002806D055
:100C7000FFE705200007022101F063FA06E00520E6
:100C800000070221012201F06EFAFFE780BDC04695
:100C9000CF010020D00100208FC2F53CE0010020F0
:100CA000EA01002081B0EFF3108072B60090FFE7F8
:100CB000FEE7000081B00090009838490A681043B0
:100CC000012212041043086001B0704783B0029003
:100CD000019132490868064A10400090009A019834
:100CE000C0001043034A1043086003B07047C04679
:100CF00007E0FFFF0200010084B00390019300921F
:100D0000264908680122104308600098039908608A
:100D1000BFF36F8F01980399486004B07047C046D5
:100D200089B00590049103A90020087005980290ED
:100D30000498019019490868012292041043086040
:100D4000EFF31080069006980090EFF3108072B6D3
:100D50000790FFE703A800783F280FD8FFE7019826
:100D60000068029908600198001D01900298001D1A
:100D700002900398401C03A90870EBE7FFE7344892
:100D80000068C003002801D5FFE7F8E70098089045
:100D9000089880F3108809B07047C04614200240BC
:100DA00080B584B0029001F0F5F9009001200004B4
:100DB0000190FFE7264800680199084213D0FFE739
:100DC0000298401C00280DD0FFE701F0E3F90099DC
:100DD000401A0299884204D3FFE703A90320087050
:100DE00031E0FFE7E6E71A4908681A4A1040019027
:100DF000194808600198002807D0FFE701981749B3
:100E0000486003A9012008701DE0FFE71048006852
:100E10004003002813D5FFE70298401C00280DD09E
:100E2000FFE701F0B7F90099401A0299884204D30C
:100E3000FFE703A90320087005E0FFE7E6E703A941
:100E400000200870FFE703A8007804B080BDC0460A
:100E500010200240FA830000FB83000018040020E9
:100E600080B586B00020049003900290019000901D
:100E700002200190042002900F2003900120049092
:100E800001A8694600F0D8FE0098401C002804D054
:100E9000FFE705A90120088003E005A900200880DC
:100EA000FFE705A8008806B080BD000080B584B0CB
:100EB00005200007029001220192110301F053F96D
:100EC000019A0298022101F04EF90199029800223C
:100ED000039201F048F90298039A03490A7020210D
:100EE00001F041F904B080BDF401002080B59CB050
:100EF0001A90199118A90020087016901A98006984
:100F00000121C907884206D0FFE71A980069FB490A
:100F1000884201D1FFE700E0FFE7FFE71A9854217C
:100F2000405C012804D1FFE71BA90220087008E2F9
:100F30001A99542201208854FFE7FFE71A980068A5
:100F400004F09FF8002800D0E8E1199840680228D2
:100F500000D193E11A9800690121C907884206D09F
:100F6000FFE71A980069F949884207D1FFE71A9804
:100F700000681999096804F099F81AE11A98016E45
:100F8000199843681F2213400F229A4091431591EC
:100F900000684003002808D1FFE7199800681F2166
:100FA00089060840800E1490E7E019980078C00781
:100FB000002803D0FFE700201390DBE019980078A9
:100FC0008007002803D5FFE701201290CFE0199891
:100FD00000784007002803D5FFE702201190C3E006
:100FE000199800780007002803D5FFE70320109028
:100FF000B7E019980078C006002803D5FFE7042061
:101000000F90ABE0199800788006002803D5FFE721
:1010100005200E909FE0199800784006002803D51F
:10102000FFE706200D9093E019980078000600284D
:1010300003D5FFE707200C9087E019984078C00798
:10104000002803D0FFE708200B907BE01998407838
:101050008007002803D5FFE709200A906FE0199860
:1010600040784007002803D5FFE70A20099063E095
:10107000199840780007002803D5FFE70B20089057
:1010800057E019984078C006002803D5FFE70C20E8
:1010900007904BE0199840788006002803D5FFE7B9
:1010A0000D2006903FE0199840784006002803D5AF
:1010B000FFE70E20059033E01998407800060028DD
:1010C00003D5FFE70F20049027E019988078C00728
:1010D000002803D0FFE7102003901BE019988078C8
:1010E0008007002803D5FFE7112002900FE0199830
:1010F00001680120820411401220002300939142D4
:10110000019001D00098019001980290FFE70298A9
:101110000390FFE703980490FFE704980590FFE72A
:1011200005980690FFE706980790FFE70798089054
:10113000FFE708980990FFE709980A90FFE70A98E7
:101140000B90FFE70B980C90FFE70C980D90FFE7D2
:101150000D980E90FFE70E980F90FFE70F981090F4
:10116000FFE710981190FFE711981290FFE712988F
:101170001390FFE713981490FFE715981499199AA4
:1011800052681F231A40914008431A99086619981B
:1011900040688008401C1A99C969884208D8FFE74E
:1011A0001A980068199A5168126803F09DFFFFE7CA
:1011B000FFE71A980068199A1168926803F0BAFF5D
:1011C0001998C0780006002857D5FFE7604803F05B
:1011D0002FFF1790199800685E49884221D1FFE7D8
:1011E00017A88078000600281BD4FFE71799012074
:1011F000C0050143564803F0B1FF594800685949FA
:10120000FFF712FA01460C2048430C301690FFE716
:101210001698002804D0FFE71698401E1690F7E7AE
:101220002AE0199800684C4988420ED1FFE717A8B8
:10123000C078C007002808D1FFE7179901200006F1
:101240000143434803F08AFF15E0199800684349B9
:1012500088420ED1FFE717A880784006002808D4FE
:10126000FFE71799012080050143394803F076FF15
:1012700000E0FFE7FFE7FFE7FFE74EE01A980069AD
:101280000121C907884206D0FFE71A9800692F4953
:10129000884207D1FFE71A9800681999096803F096
:1012A00013FFFFE71998C0780006002834D5FFE740
:1012B000274803F0BDFE1790199800682549884219
:1012C00008D1FFE717990120C0058143204803F0AA
:1012D00045FF20E0199800681F49884208D1FFE7C0
:1012E0001799012000068143FA4803F037FF11E007
:1012F00019980068194988420AD101E00400008069
:101300001799012080058143F24803F027FF00E090
:10131000FFE7FFE7FFE7FFE7FFE708E01A99886DBF
:1013200020221043886518A901200870FFE7FFE715
:101330001A99542200208854FFE718981BA90870B6
:10134000FFE71BA800781CB080BDC04604000080E9
:1013500008270140001000B0004000B8002000B491
:1013600040000020400D030081B0009001B07047A4
:1013700081B0009001B0704781B0009001B070471B
:1013800080B58AB0089007A90020087006900590E3
:1013900003900898002804D1FFE709A901200870EC
:1013A0008BE108983C21405C012801D1FFE7FFE771
:1013B00008980069002809D0FFE708980069012112
:1013C0004905884201D1FFE7FFE7FFE70898806DF4
:1013D00000280AD1FFE7089800F080F9089900205A
:1013E000C865089954228854FFE70898006803F0FC
:1013F0003EFE002816D1FFE70898006803F00AFEB9
:10140000B0480068B049FFF70FF94000801C039016
:10141000FFE70398002804D0FFE70398401E0390DD
:10142000F7E7FFE70898006803F021FE00280DD1D8
:10143000FFE70899886D102210438865089AD16DDE
:1014400001200143D16507A90870FFE708980068EB
:1014500003F017FE04900898806DC006002800D5A0
:101460001EE10498002800D01AE10898806D02213E
:101470000843012109028843089988650898006893
:1014800003F0EDFD002800D0B0E008988168027EEE
:1014900092031143427ED2031143827E52031143D1
:1014A000026B531E9A4112031143C2681143029109
:1014B000C07C0006002807D5FFE7089800690121D5
:1014C000C9078843019003E0012040050190FFE730
:1014D00002990198014308982C22805C4000014346
:1014E00006980843069008982021405C012817D1EF
:1014F000FFE70898807E002806D1FFE706980121C3
:101500000904084306900AE00899886D20221043D8
:1015100088650899C86D01221043C865FFE7FFE799
:101520000898406A00280BD0FFE70898416A072214
:1015300092011140806A0143069808430690FFE734
:1015400008980068C06861490840069908430899EE
:101550000968C86008984168032292071140C06C6E
:10156000014305980843059008983C21405C0128F8
:1015700011D1FFE7089948680322920710400A6CCE
:1015800010434A6C1043896C0843059908430121B4
:1015900008430590FFE70898006800694C49084037
:1015A000059908430899096808610898406803216B
:1015B0008907884219D0FFE7089840680121890708
:1015C000884212D0FFE7089840680121C907884285
:1015D0000BD0FFE73F4908680F2293049843089A0D
:1015E00052681A4080180860FFE7FFE7089908680A
:1015F0004A6B002103F0C0FD089908688A6B3649E0
:1016000003F0BAFD08980069002808D1FFE70898A0
:101610000168886A0F22D2431043886219E0089853
:10162000006901214905884211D1FFE70898006847
:10163000806A0899C8698000021F1C2002400F20A0
:10164000C04390400A6E10430968886200E0FFE7DB
:10165000FFE708980068002103F0F3FC0899496B44
:1016600088420CD1FFE708990020C8650898806D72
:101670000121084302218843089988650FE00898F2
:10168000806D102108430221884308998865089AD3
:10169000D16D01200143D16507A90870FFE708E07B
:1016A0000899886D10221043886507A901200870E9
:1016B000FFE7079809A90870FFE709A800780AB0B2
:1016C00080BDC04640000020400D03000102DEFF47
:1016D00002FCFF1F0827014004FFFF0780B58CB004
:1016E0000B9000200A9009900890079006900B98A4
:1016F00000682649884247D1FFE7FFE7244802688F
:10170000012109050A430260006808400590059818
:10171000FFE7FFE71F48026801210A4302600068F3
:10172000084004900498FFE70C20069003200790DF
:1017300000200290089005200190000706A900F003
:101740007FFB019A029914480390144B0360426096
:101750008160C16080220261012213024361920212
:1017600082612022C261016200F060F9002803D08A
:10177000FFE7FFF797FAFFE7FFE70B9806490165D8
:101780000B988862FFE7FFE70CB080BD00240140A2
:101790004010024034100240840200200800024041
:1017A00080B586B00490039102920498006803F01B
:1017B00068FC00286DD1FFE7FFE704985421405CE6
:1017C000012804D1FFE705A90220087069E0049907
:1017D000542201208854FFE7FFE704980068C0689E
:1017E000C007002813D1FFE70498006803F037FC16
:1017F000002805D0FFE70498006803F0F3FBFFE73B
:1018000004980168C86801221043C860FFE7049883
:10181000FFF790F8014601A801700078002837D141
:10182000FFE70498806D0121090208431F49084021
:101830000499886504990020C8650498016D1C48C6
:10184000C8620498016D1B4808630498016D1A482A
:101850004863049801681C200860FFE7049954223B
:1018600000208854FFE7049801684868102210435C
:1018700048600499086D09684031039A029B00F0A2
:1018800057F901A908700498006803F045FCFFE7C8
:1018900003E001A902200870FFE7019805A908707C
:1018A000FFE705A8007806B080BDC046FEF1FFFF47
:1018B000350800081D090008F308000880B584B049
:1018C00003905848006802900398006800680190EF
:1018D00002980399096C1C221140C8404007002857
:1018E00028D5FFE701A800784007002822D5FFE7A8
:1018F0000398006800688006002807D4FFE7039873
:1019000001680868042290430860FFE70398006CB0
:101910001C210840042282404349086810430860A3
:101920000398006B002804D0FFE70398016B8847F9
:10193000FFE774E002980399096C1C221140C8402B
:101940008007002832D5FFE701A80078800700282B
:101950002CD5FFE7039800680068800600280BD4A8
:10196000FFE70398016808680A229043086003991A
:10197000252201208854FFE70398006C1C210840B1
:10198000022282402849086810430860FFE7039953
:10199000242200208854FFE70398C06A002804D05E
:1019A000FFE70398C16A8847FFE737E00298039989
:1019B000096C1C221140C840000700282CD5FFE705
:1019C00001A800780007002826D5FFE703980168E2
:1019D00008680E22904308600398016C1C200140A7
:1019E000012003468B40104A116819431160039986
:1019F000C863039925228854FFE703992422002015
:101A00008854FFE70398406B002804D0FFE7039851
:101A1000416B8847FFE700E0FFE7FFE7FFE704B01F
:101A200080BDC046000002400400024080B584B082
:101A300002900298002804D1FFE703A90120087052
:101A40006EE0029800900068374940181421FEF7B4
:101A5000EBFD009980000864029925220220885439
:101A6000029801680868314A1040086002980190A5
:101A70008268C1680A4301690A4341690A4381696E
:101A80000A43C1690A43016A0A43016808681043AE
:101A900008600298FFF742F80298806801218903E4
:101AA000884204D1FFE7029900204860FFE70299CD
:101AB00048683F221040496C08600299C86C896CE4
:101AC000486002984068002811D0FFE702984068FB
:101AD00004280CD8FFE70298FFF742F80298016D3E
:101AE000002008600299886D496D486007E00299FE
:101AF000002008650299486502998865FFE7029908
:101B00000020C8630299252201208854FFE702992A
:101B1000242200208854FFE703A900200870FFE773
:101B200003A8007804B080BDF8FFFDBF0F80FFFF61
:101B300080B586B00490039102920193694600201B
:101B40000870FFE704982421405C012804D1FFE7D6
:101B500005A9022008706BE0049924220120885412
:101B6000FFE7FFE704982521405C01284FD1FFE7FC
:101B7000049925220220885404990020C8630498FF
:101B80000168086801229043086004980399029A4A
:101B9000019BFFF703F80498006B002807D0FFE7CC
:101BA0000498016808680E22104308600CE004984D
:101BB0000168086804229043086004980168086876
:101BC0000A2210430860FFE70498406C0068C003D5
:101BD000002808D5FFE70498416C0868012212022A
:101BE00010430860FFE70498006D002808D0FFE765
:101BF0000498016D08680122120210430860FFE793
:101C00000498016808680122104308600CE00499F8
:101C10008020C863FFE70499242200208854FFE74E
:101C2000694601200870FFE7009805A90870FFE7E2
:101C300005A8007806B080BD80B586B004900391F9
:101C4000FFE76B480078012804D1FFE705A90220CF
:101C500008705EE0664901200870FFE7FFE764490D
:101C6000002048607D20C000FFF79AF8014602A8D6
:101C700001700078002843D1FFE7049904204860F0
:101C80000498006804280BD1FFE704984068FFF728
:101C900011F87D20C000FFF783F802A908702EE03C
:101CA00003990020C0430860049880680190FFE712
:101CB0000198049A9168D2688918884219D2FFE77E
:101CC000049840680199FFF701F87D20C000FFF7F4
:101CD00067F8014602A801700078002804D0FFE7E9
:101CE00001980399086004E0FFE70198401C019007
:101CF000DEE74F490868022290430860FFE7FFE7EC
:101D0000FFE73B4900200870FFE7029805A908702B
:101D1000FFE705A8007806B080BDC04680B582B058
:101D200001A90120009008707D20C000FFF738F85D
:101D3000009A3F480168D207114301600068C00F54
:101D4000002804D0FFE701A900200870FFE701A8E0
:101D5000007802B080BDC04610B588B006900591ED
:101D600003930292FFE722480078012804D1FFE79D
:101D700007A90220087036E01D4901200870FFE71E
:101D8000FFE71B49002048607D20C000FFF708F8EE
:101D9000014601A80170007800281BD1FFE70698D2
:101DA000012806D1FFE70598039B029AFEF7A4FFDE
:101DB00004E005980299FEF7B3FFFFE77D20C0001D
:101DC000FEF7EEFF01A90870069A194908689043CA
:101DD0000860FFE7FFE7064900200870FFE7019869
:101DE00007A90870FFE707A8007808B010BDC04633
:101DF0001804002081B06946002008700C48006873
:101E0000C00F002810D0FFE70A490B4808600B48B4
:101E1000086007480068C00F002804D0FFE7694643
:101E200001200870FFE7FFE76846007801B07047BF
:101E3000142002400820024023016745AB89EFCD02
:101E40008AB00990089100200790FFE70898006881
:101E50000799C840002800D147E108980068079A10
:101E600001219140084006900698002800D138E1F1
:101E70000898406803210840012807D0FFE7089828
:101E800040680321084002282CD1FFE709988068A8
:101E900005900798400003218140059888430590EC
:101EA0000898C1680798400081400598084305904C
:101EB000059809998860099840680590079801215C
:101EC0008140059888430590089840681021084093
:101ED00001090798814005980843059005980999DC
:101EE0004860FFE70898406803210840032816D09F
:101EF000FFE70998C06805900798400003218140DA
:101F000005988843059008988168079840008140AB
:101F100005980843059005980999C860FFE7089857
:101F2000406803210840022820D1FFE7099807995B
:101F3000C90889004018006A059007984007C00E3C
:101F40000F218140059888430590089801690798FA
:101F50004007C00E814005980843059005980999EF
:101F6000079AD208920089180862FFE7099800686A
:101F7000059007984100032002468A400599914345
:101F800005910899496801400798400081400598EB
:101F9000084305900598099908600898807980079A
:101FA000002800D19CE007980321884350494058FD
:101FB000059007988007C00E0F218140059888433F
:101FC0000590099805210907884203D1FFE7002001
:101FD000049022E009984749884203D1FFE7012095
:101FE000039017E009984449884203D1FFE7022093
:101FF00002900CE00999414A032005230093914285
:10200000019001D00098019001980290FFE702989A
:102010000390FFE703980490FFE70499079880076F
:10202000C00E814005980843059005980799032242
:1020300091432F4A885032480068059006990598C8
:102040008843059008988079C006002805D5FFE7E9
:102050000699059808430590FFE705982849086008
:1020600028480068059006990598884305900898C7
:1020700080798006002805D5FFE706990598084372
:102080000590FFE705981F4908601F480068059004
:10209000069905988843059008988079800700285C
:1020A00005D5FFE70699059808430590FFE70598D1
:1020B00015490860154800680590069905988843F9
:1020C000059008988079C007002805D0FFE7069999
:1020D000059808430590FFE705980C490860FFE75D
:1020E000FFE70798401C0790B0E60AB07047C0466B
:1020F000601802400004005000080050000C00501E
:10210000001802400418024084180240801802405F
:1021100084B0009101460098039102A908800398B9
:1021200000690988084204D0FFE701A9012008706E
:1021300003E001A900200870FFE701A8007804B0BF
:10214000704783B0029001A801800299496900910B
:10215000009A0188104608400004914340180299F3
:10216000886103B0704783B0029001A8018068467F
:1021700002700078002805D0FFE701A800880299C6
:10218000886104E001A8008802998862FFE703B033
:1021900070470000014800687047C0463C040020BA
:1021A00010B583B00190009101984121405C202836
:1021B00039D1FFE7FFE701984021405C012804D1B5
:1021C000FFE702A90220087031E0019940220120B6
:1021D0008854FFE7FFE701994122242088540198A1
:1021E000016808680123984308600198016808683D
:1021F0001C03A0430860009C019801680868204304
:102200000860019801680868184308600199202057
:102210008854FFE70199402200208854FFE702A973
:102220000020087003E002A902200870FFE702A85E
:10223000007803B010BD84B0029001910298412152
:10224000405C20283FD1FFE7FFE702984021405C37
:10225000012804D1FFE703A90220087037E00299A2
:10226000402201208854FFE7FFE702994122242001
:10227000885402980168086801239843086002980E
:1022800000680068009000980F21090288430090C0
:10229000019801020098084300900098029909688B
:1022A00008600298016808681843086002992020B5
:1022B0008854FFE70299402200208854FFE703A9D1
:1022C0000020087003E003A902200870FFE703A8BC
:1022D000007804B07047000080B582B0009000988C
:1022E000002804D1FFE701A9012008707EE00098D2
:1022F0004121405C002808D1FFE7009940220020DE
:102300008854009800F0D8FAFFE700994122242071
:102310008854009801680868012290430860009979
:1023200048680F231B0698430968086100980168F4
:102330008868D203904388600098C068012808D15B
:10234000FFE7009988680122D2031043096888607A
:1023500007E000998868212292021043096888608A
:10236000FFE70098C068022808D1FFE700980168DD
:1023700048680122D2021043486007E000980168D3
:1023800048680122D20290434860FFE70098016844
:102390004868184A1043486000980168C8680122DC
:1023A000D3039843C860009908694B6918438B6947
:1023B0001B0218430968C8600099C8690B6A184372
:1023C000096808600098016808681043086000996F
:1023D00000204864009A41232021D15400990863C9
:1023E00000994222885401A90870FFE701A80078EB
:1023F00002B080BD00800002B0B58AB004461098DB
:102400000F980E9D089407AC218006A90A8005A9A3
:102410000B8004A9088008984121405C202800D046
:1024200012E10E98002805D0FFE704A800880028D4
:1024300007D1FFE7089A01204102516409A90870F9
:1024400006E1FFE708984021405C012804D1FFE73E
:1024500009A902200870FBE0089940220120885455
:10246000FFE7FFE7FFF796FE0390089803990091B6
:102470000122D103192302F081FA002804D0FFE7DA
:1024800009A901200870E3E008994122222088541C
:1024900008994222402088540899002048640E99E7
:1024A000089A51620499089A5185089948630898D6
:1024B00007A9098806AA128805AB1B88109C039DF2
:1024C0000195009402F076F900280AD0FFE7FFE7B3
:1024D0000899402200208854FFE709A901200870CC
:1024E000B6E00898408D000A00280FD0FFE7089951
:1024F000FF200885089807A909882822825C564B86
:10250000009301231B0602F00FFA0FE00898408D9C
:1025100008990885089807A909882822825C4E4BEB
:10252000009301235B0602F0FFF9FFE7FFE708983D
:10253000109B039900910421002202F01FFA002849
:1025400004D0FFE709A90120087081E0089800681D
:10255000406A0899496A08700899486A401C4862AC
:102560000899088D401E08850899488D401E4885A9
:102570000898408D00283AD0FFE70898008D002881
:1025800035D1FFE70898109B039900918021002224
:1025900002F0F4F9002804D0FFE709A9012008702F
:1025A00056E00898408D000A00280FD0FFE70899F0
:1025B000FF200885089807A909882822825C002343
:1025C000009301231B0602F0AFF90FE00898408D3D
:1025D00008990885089807A909882822825C0023A1
:1025E000009301235B0602F09FF9FFE7FFE7FFE797
:1025F0000898408D00289AD1FFE708981099039A0F
:1026000002F01DFA002804D0FFE709A90120087094
:102610001EE0089801682020C86108990A6851687E
:10262000A44B1940516008994122885408994222CC
:1026300000208854FFE70899402200208854FFE7D3
:1026400009A90020087003E009A902200870FFE72B
:1026500009A800780AB0B0BD00240080B0B58AB0E7
:10266000044610980F980E9D089407AC218006A987
:102670000A8005A90B8004A9088008984121405CC4
:10268000202800D00EE10E98002805D0FFE704A80E
:102690000088002807D1FFE7089A01204102516411
:1026A00009A9087002E1FFE708984021405C012871
:1026B00004D1FFE709A902200870F7E00899402239
:1026C00001208854FFE7FFE7FFF764FD03900898B7
:1026D000039900910122D103192302F04FF9002838
:1026E00004D0FFE709A901200870DFE00899412222
:1026F00021208854089942224020885408990020BB
:1027000048640E99089A51620499089A518508996B
:102710004863089807A9098806AA128805AB1B8890
:10272000109C039D0195009402F0A0F800280AD0A7
:10273000FFE7FFE70899402200208854FFE709A936
:1027400001200870B2E00898408D000A00280FD0E0
:10275000FFE70899FF200885089807A9098828221B
:10276000825C0023009301231B0602F0DDF80FE0DA
:102770000898408D08990885089807A90988282293
:10278000825C0023009301235B0602F0CDF8FFE793
:10279000FFE708981099039A02F0A1F9002804D0E5
:1027A000FFE709A90120087080E00899486A0078CD
:1027B000096888620899486A401C48620899488DEF
:1027C000401E48850899088D401E08850898408D50
:1027D00000283AD0FFE70898008D002835D1FFE7A0
:1027E0000898109B039900918021002202F0C6F8FE
:1027F000002804D0FFE709A90120087056E00898D6
:10280000408D000A00280FD0FFE70899FF200885B7
:10281000089807A909882822825C002300930123D5
:102820001B0602F081F80FE00898408D0899088592
:10283000089807A909882822825C002300930123B5
:102840005B0602F071F8FFE7FFE7FFE70898408DAD
:1028500000289ED1FFE708981099039A02F0EFF83C
:10286000002804D0FFE709A9012008701EE008989D
:1028700001682020C86108990A6851680D4B194009
:1028800051600899412288540899422200208854B6
:10289000FFE70899402200208854FFE709A900209B
:1028A000087003E009A902200870FFE709A8007872
:1028B0000AB0B0BD00E800FE80B590B00F900020D7
:1028C00001900E900D900C900B900A90099008903A
:1028D00007900690059004900F9800681C49884264
:1028E00033D1FFE7202004900020069004A800F0D8
:1028F00015F9002803D0FFE7FEF7D4F9FFE7FFE75B
:102900001448026802210A430260006808400390EC
:102910000398FFE7032000020A9012200B9000208A
:102920000C900D9006200E900B480AA9FFF788FA2C
:10293000FFE74C480268012149050A43026000682C
:10294000084002900298FFE7FFE710B080BDC04644
:102950000054004034100240000400503148027816
:1029600002490868801808607047C0463C0400208F
:1029700080B582B001A9002008700B4908680122C7
:10298000120210430860032000F010F8002804D061
:10299000FFE701A90120087002E000F047F8FFE717
:1029A00001A8007802B080BD0020024080B584B04C
:1029B000039002A9002008701A480078002829D046
:1029C000FFE7534800680190164801787D20C00059
:1029D000FDF72AFE01460198FDF726FE00F0BAFE3B
:1029E000002812D1FFE70398032809D8FFE70399CD
:1029F0000022D04300F043F803980B49086003E03D
:102A000002A901200870FFE703E002A90120087075
:102A1000FFE703E002A901200870FFE702A80078A1
:102A200004B080BD840000208800002082B0FFE751
:102A30000B48026801210A430260006808400190C7
:102A40000198FFE7FFE7BB480268012109070A4335
:102A500002600068084000900098FFE702B07047ED
:102A6000401002403C10024080B582B0014601A8EF
:102A700001700021405603F01DFF02B080BD80B5FB
:102A800084B0034603A803700291019200214056CE
:102A9000029903F025FF04B080BD03F063FF00003E
:102AA00080B584B00290A449086803225202904382
:102AB000029A1043086002980121490288421ED1FF
:102AC000FFE713480168062048431249FDF7ACFDB3
:102AD000401C0190FFE710480068400500280DD514
:102AE000FFE70198002804D0FFE70198401E0190FD
:102AF00003E003A90320087005E0ECE7FFE703A962
:102B000000200870FFE703A8007804B080BDC0462D
:102B10004000002040420F001470004080B588B093
:102B2000079004A90020087003A90870079880780E
:102B30008007002800D49DE002A9002008707D488D
:102B40000068C000002810D4FFE7FFE7794802685A
:102B5000012109070A4302600068084001900198BA
:102B6000FFE702A901200870FFE773490868012206
:102B7000120210430860FFF70DFB0590FFE76E4857
:102B80000068C00500280CD4FFE7FFF703FB059998
:102B9000401A032804D3FFE704A90320087000E0CB
:102BA000EDE704A80078002853D1FFE7F448006857
:102BB00003210902084006900698002817D0FFE775
:102BC000069807994969884211D0FFE7EC490868DF
:102BD0000322120290430690086801221204104357
:102BE000086008689043086006980860FFE706A838
:102BF0000078C007002818D0FFE7FFF7CBFA059050
:102C0000FFE7DF480068800700280DD4FFE7FFF7E3
:102C1000C1FA0599401ADF49884204D3FFE704A9A5
:102C20000320087000E0ECE7FFE704A80078002824
:102C30000AD1FFE7D2490868032212029043079A9B
:102C400052691043086003E0049803A90870FFE785
:102C500003E0049803A90870FFE702A800780128A0
:102C600007D1FFE733490868012212079043086043
:102C7000FFE7FFE707980078C007002809D0FFE7C3
:102C80002E49086803229043079A5268104308604F
:102C9000FFE707980078800600280AD5FFE7274954
:102CA0000868032212039043079A92681043086051
:102CB000FFE7079840784006002818D5FFE71F492E
:102CC0000868032292079043079A1269104308602C
:102CD0000798006901218907884207D1FFE7F24977
:102CE00008680122120410430860FFE7FFE7079815
:102CF00040780007002818D5FFE71049086803222C
:102D000092039043079AD268104308600798C068FE
:102D100001218903884207D1FFE7E34908680122BE
:102D2000120410430860FFE7FFE703A8007808B02B
:102D300080BDC0463C10024000700040541002406C
:102D400080B584B0029001910298002804D1FFE779
:102D500003A9012008700CE101988849096807223D
:102D60001140884221D9FFE784490868072290432F
:102D7000019A10430860FFF70DFA0090FFE77F48C3
:102D8000006807210840019988420DD0FFE7FFF74E
:102D900001FA0099401A7F49884204D3FFE703A94A
:102DA00003200870E5E0EAE7FFE702980078800773
:102DB000002817D5FFE7029800784007002807D5BC
:102DC000FFE7B84908680722120310430860FFE7CD
:102DD000B44908680F2212029043029A9268104385
:102DE0000860FFE702980078C007002872D0FFE76C
:102DF0000298406801280BD1FFE7AE4800688003C5
:102E0000002804D4FFE703A901200870B1E03DE0E9
:102E10000298406802280BD1FFE7A64800688001AD
:102E2000002804D4FFE703A901200870A1E02CE0EA
:102E30000298406800280BD1FFE79E4800684005D3
:102E4000002804D4FFE703A90120087091E01BE0EB
:102E50000298406803280BD1FFE74A4800688007C2
:102E6000002804D4FFE703A90120087081E00AE0EC
:102E7000434800688007002804D4FFE703A9012025
:102E8000087076E0FFE7FFE7FFE7FFE7854908689E
:102E900007229043029A526810430860FFF77AF9BC
:102EA0000090FFE77F480068382108400299496890
:102EB000C90088420DD0FFE7FFF76CF90099401A6E
:102EC0003449884204D3FFE703A90320087050E087
:102ED000E8E7FFE70198294909680722114088427D
:102EE00021D2FFE72549086807229043019A104341
:102EF0000860FFF74FF90090FFE7204800680721BE
:102F00000840019988420DD0FFE7FFF743F9009987
:102F1000401A2049884204D3FFE703A90320087020
:102F200027E0EAE7FFE702980078400700280AD583
:102F3000FFE75C490868072212039043029AD268AF
:102F400010430860FFE700F027F8564909680F2290
:102F5000120211408A090C4989581F221140C840A9
:102F60000A4908600A480068FFF720FD03A90870B5
:102F7000FFE703A8007804B080BDC04600200240EF
:102F80005C10024060100240AC6B00084000002062
:102F9000880000208913000080B588B0414800688F
:102FA0008006400F00280FD1FFE742480068072144
:102FB000C9020840C10A01208840039003993C4897
:102FC000FDF732FB029069E036480068382108407E
:102FD000082803D1FFE7354802905EE031480068D9
:102FE0003821084010283CD1FFE72F480168032210
:102FF000114006910068702108400009401C0490AF
:1030000006980190022812D0FFE7019803280FD1FB
:10301000FFE704992548FDF707FB014622480068B1
:103020007F2212021040000A484307900EE0FFE79B
:1030300004991F48FDF7F8FA01461B4800687F22F3
:1030400012021040000A48430790FFE71648006844
:10305000400F401C059007980599FDF7E5FA02908E
:103060001AE01048006838210840202804D1FFE702
:103070000120C00302900EE00A4800683821084091
:10308000182804D1FFE77D200002029002E0002012
:103090000290FFE7FFE7FFE7FFE7FFE7029808B0CE
:1030A00080BDC046081002400C10024000127A0099
:1030B0000024F4000010024010B588B00690069875
:1030C000002804D1FFE707A9012008702AE3069829
:1030D0000078C007002800D188E0FC48006838214B
:1030E00008400490FA4800680321084003900498BF
:1030F000102804D1FFE70398032804D0FFE70498C1
:10310000082810D1FFE7F84800688003002809D597
:10311000FFE706984068002804D1FFE707A90120CF
:103120000870FFE261E0FFE70698406801210904AA
:10313000884207D1FFE7EC490868012212041043D6
:1031400008601DE0069840680521090488420BD1FB
:10315000FFE7E549086801229304184308600868FE
:103160001204104308600AE0DF49086801221304D2
:10317000984308600868920490430860FFE7FFE7FF
:10318000FFE706984068002817D0FFE7FFF702F82E
:103190000590FFE7D4480068800300280CD4FFE7BF
:1031A000FEF7F8FF0599401A652804D3FFE707A941
:1031B00003200870B6E2EDE716E0FEF7EBFF05909E
:1031C000FFE7C9480068800300280CD5FFE7FEF739
:1031D000E1FF0599401A652804D3FFE707A90320FA
:1031E00008709FE2EDE7FFE7FFE7FFE7069800784A
:1031F0008007002800D4A3E0B448006838210840C4
:103200000490B348006803210840039004981028F4
:1032100004D1FFE70398022804D0FFE704980028B0
:103220003BD1FFE7B04800684005002809D5FFE71B
:103230000698C068002804D1FFE707A9012008709C
:1032400070E2AA4908687F2212029043069A5269E6
:103250001202104308600498002811D1FFE7A24829
:1032600002680721C9028A43069B1B691A43026050
:1032700000680840C10A9E48C8409E490860FFE7B0
:103280009D480068FFF792FB002804D0FFE707A9DC
:103290000120087046E2FFE751E00698C068002868
:1032A0002FD0FFE7904908680722D2029043069A80
:1032B0001269104308600868012212021043086076
:1032C000FEF768FF0590FFE7874800684005002883
:1032D0000CD4FFE7FEF75EFF0599401A032804D3DC
:1032E000FFE707A9032008701CE2EDE77F490868A3
:1032F0007F2212029043069A52691202104308601C
:103300001CE0794908680122120290430860FEF728
:1033100041FF0590FFE774480068400500280CD580
:10332000FFE7FEF737FF0599401A032804D3FFE7AC
:1033300007A903200870F5E1EDE7FFE7FFE7FFE7E6
:10334000069800780007002856D5FFE7F748006880
:1033500038210840182810D1FFE7F7480068800797
:10336000002809D5FFE706988069002804D1FFE707
:1033700007A901200870D5E13DE006988069002882
:103380001CD0FFE7EC490868012210430860FEF7F3
:1033900001FF0590FFE7E8480068800700280CD48B
:1033A000FFE7FEF7F7FE0599401A032804D3FFE76D
:1033B00007A903200870B5E1EDE71BE0DE490868C6
:1033C000012290430860FEF7E5FE0590FFE7DA482A
:1033D0000068800700280CD5FFE7FEF7DBFE0599A3
:1033E000401A032804D3FFE707A90320087099E1D6
:1033F000EDE7FFE7FFE7FFE70698007840070028C2
:1034000000D4CAE002A900200870C848006838212A
:103410000840202810D1FFE7CA480068800700282C
:1034200009D5FFE706988068002804D1FFE707A9BF
:103430000120087076E1AFE0C0480068C0000028B5
:1034400010D4FFE7FFE7BD480268012109070A43DE
:1034500002600068084001900198FFE702A901207E
:103460000870FFE7B6480068C00500281DD4FFE7D4
:10347000B34908680122120210430860FEF78AFE71
:103480000590FFE7AE480068C00500280CD4FFE7B0
:10349000FEF780FE0599401A032804D3FFE707A929
:1034A000032008703EE1EDE7FFE7FFE7069880683C
:1034B000012806D1FFE7A3490868012210430860EC
:1034C00027E006988068052818D103E0081002401C
:1034D0000C1002409B4908680422104308600868E9
:1034E00001221043086013E0001002400410024063
:1034F0000024F40040000020880000209149086862
:103500000122904308600868042290430860FFE7A6
:10351000FFE7FFE706988068002818D0FFE7FEF76E
:1035200039FE0590FFE787480068800700280DD422
:10353000FFE7FEF72FFE0599401A8349884204D31E
:10354000FFE707A903200870ECE0ECE717E0FEF7BF
:1035500021FE0590FFE77B480068800700280DD515
:10356000FFE7FEF717FE0599401A7749884204D312
:10357000FFE707A903200870D4E0ECE7FFE702A803
:103580000078012807D1FFE76C490868012212077B
:1035900090430860FFE7FFE7FFE70698C06900284F
:1035A00000D1BBE06148006838210840102876D07F
:1035B000FFE70698C06902284ED1FFE75D49086819
:1035C0000122120690430860FEF7E4FD0590FFE734
:1035D00058480068800100280CD5FFE7FEF7DAFDA7
:1035E0000599401A032804D3FFE707A903200870B0
:1035F00098E0EDE74E490868554A1040069B1A6A64
:103600005C6A22439C6A24022243DC6A22431B6BCD
:103610001A4310430860474B1868012214062043E0
:1036200018600868120710430860FEF7B3FD0590A4
:10363000FFE740480068800100280CD4FFE7FEF750
:10364000A9FD0599401A032804D3FFE707A9032021
:10365000087067E0EDE721E03649086801221206AC
:1036600090430860FEF796FD0590FFE7314800683B
:10367000800100280CD5FFE7FEF78CFD0599401A64
:10368000032804D3FFE707A9032008704AE0EDE709
:10369000274908682D4A10400860FFE73DE006987A
:1036A000C069012804D1FFE707A90120087039E0AB
:1036B0001F48006803900398032108400699096A8F
:1036C000884224D1FFE70398702108400699496A8F
:1036D00088421CD1FFE703987F2109020840069920
:1036E000896A0902884212D1FFE703981F21490421
:1036F00008400699C96A884209D1FFE70398072163
:10370000490708400699096B884204D0FFE707A9DA
:103710000120087006E0FFE7FFE7FFE707A90020A8
:103720000870FFE707A8007808B010BD0810024035
:103730000C10024000100240601002403C10024099
:10374000007000405C10024089130000FCFFFEEF97
:103750008C80C11F80B582B00190019802F0CEF933
:1037600002B080BD81B0009001B0704781B0009080
:1037700001B0704781B0009001B0704784B00290F2
:10378000019100200090FFE702983C21405C012855
:1037900004D1FFE703A9022008707CE002993C22D3
:1037A00001208854FFE7FFE70098FF218843019933
:1037B000C9680843009000980321090288430199D1
:1037C000896808430090009801218A029043019A79
:1037D0005268104300900098CA029043019A126800
:1037E0001043009000980A039043019A1269104315
:1037F000009000984A039043019A52691043009048
:1038000000988A039043019A126B1043009000982D
:103810000F2212049043019A9269120410430090FF
:103820000098090788430199C969084300900298E4
:103830000068C749884220D1FFE700980F21090599
:1038400088430199896A090508430090009801217D
:103850000A069043019A126A1043009000984A06A3
:103860009043019A526A1043009000984907884398
:103870000199C96A08430090FFE700980299096816
:103880004864FFE702993C2200208854FFE703A91F
:1038900000200870FFE703A8007804B07047C04616
:1038A00085B003900291FFE703983C21405C01281A
:1038B00004D1FFE704A90220087057E003993C22D5
:1038C00001208854FFE7FFE703993D220220885436
:1038D0000398006840680190039800688068009031
:1038E000039800689A4988420BD1FFE701980F219D
:1038F00009058843019002984168019808430190A6
:10390000FFE70198702188430190029801680198AF
:10391000084301900198039909684860039800687A
:103920008B49884206D0FFE703980068894988429E
:103930000ED1FFE7009880218843009002988168AB
:103940000098084300900098039909688860FFE791
:1039500003993D2201208854FFE703993C2200206F
:103960008854FFE704A900200870FFE704A8007846
:1039700005B0704780B582B000900098002804D14F
:10398000FFE701A90120087045E000983D21405C57
:10399000002808D1FFE700993C22002088540098B5
:1039A00000F03EF8FFE700993D220220885400997C
:1039B00001C902F047F90099482201208854FFE725
:1039C00000993E220120885400993F228854009992
:1039D00040228854009941228854009942228854F8
:1039E000009943228854FFE7FFE700994422012011
:1039F0008854009945228854009946228854009999
:103A000047228854FFE700993D220120885401A9EC
:103A100000200870FFE701A8007802B080BD000018
:103A200080B586B0059005980068494988420DD157
:103A3000FFE7FFE71F4802680121C9020A4302604D
:103A40000068084004900498FFE72FE0059800689C
:103A5000404988420CD1FFE7FFE71748026802217E
:103A60000A4302600068084003900398FFE71CE0E7
:103A7000059800680E49884216D1FFE7FFE70D4818
:103A800002680121C9030A430260006808400290ED
:103A90000298FFE71320019000221146FEF7EFFF86
:103AA0000198FEF7E1FFFFE7FFE7FFE706B080BD03
:103AB00000200040401002403C10024083B00190C2
:103AC00001983D21405C012804D0FFE702A90120B4
:103AD000087038E001993D2202208854019801685D
:103AE000C86801221043C8600198006818498842DC
:103AF00006D0FFE7019800681649884218D1FFE711
:103B000001980068806814490840009000980628D1
:103B10000DD0FFE7009801210904884207D0FFE794
:103B2000019801680868012210430860FFE706E079
:103B3000019801680868012210430860FFE702A9A4
:103B400000200870FFE702A8007803B07047C04665
:103B5000002C0140000400400700010080B586B041
:103B60000490039102A900200870FFE704983C210B
:103B7000405C012804D1FFE705A902200870AEE0EF
:103B800004993C2201208854FFE7FFE704993D2275
:103B90000220885404980068806801900198524976
:103BA000084001900198FF21090288430190019883
:103BB000049909688860039800680090002875D00F
:103BC000FFE70098102871D0FFE7009820286DD0FB
:103BD000FFE70098302869D0FFE70098402858D0C8
:103BE000FFE7009850283AD0FFE70098602843D0BC
:103BF000FFE7009870280DD0FFE700980121090326
:103C0000884206D0FFE7009801214903884216D078
:103C100053E056E004980068039B99685A68DB6893
:103C200002F0A3F804980068806801900198772159
:103C300008430190019804990968886041E004985C
:103C40000068039B99685A68DB6802F08EF8049854
:103C500001688868012292031043886031E004986B
:103C60000068039A5168D26802F044FB0498006827
:103C7000502102F095F824E004980068039A5168F6
:103C8000D26802F05FFB04980068602102F088F8B7
:103C900017E004980068039A5168D26802F02AFB82
:103CA00004980068402102F07BF80AE0049800685C
:103CB0000399096802F074F803E002A90120087072
:103CC000FFE704993D2201208854FFE704993C2234
:103CD00000208854FFE7029805A90870FFE705A8AF
:103CE000007806B080BDC04688FFCEFF81B000904E
:103CF00001B0704780B584B0039003980068C06835
:103D00000290039800680069019001A8007880077C
:103D1000002825D5FFE702A80078800700281ED5D7
:103D2000FFE7039801680220C0430861039901205E
:103D300008770398006880698007002804D0FFE7AF
:103D40000398FFF7D3FF06E0039800F0B9F9039852
:103D500000F00FFBFFE7039900200877FFE7FFE77C
:103D600001A800784007002826D5FFE702A80078C0
:103D7000400700281FD5FFE7039801680420C043CF
:103D8000086103990220087703980068806980051C
:103D9000800F002804D0FFE70398FFF7A7FF06E095
:103DA000039800F08DF9039800F0E3FAFFE7039918
:103DB00000200877FFE7FFE701A800780007002848
:103DC00025D5FFE702A80078000700281ED5FFE7E9
:103DD000039801680820C04308610399042008770C
:103DE00003980068C0698007002804D0FFE70398A3
:103DF000FFF77CFF06E0039800F062F9039800F0FB
:103E0000B8FAFFE7039900200877FFE7FFE701A86A
:103E10000078C006002826D5FFE702A80078C00673
:103E200000281FD5FFE7039801681020C0430861F0
:103E300003990820087703980068C0698005800FFF
:103E4000002804D0FFE70398FFF750FF06E003982F
:103E500000F036F9039800F08CFAFFE70399002090
:103E60000877FFE7FFE701A80078C007002810D017
:103E7000FFE702A80078C007002809D0FFE70398F1
:103E800001680120C0430861039800F06DFBFFE763
:103E9000FFE7019880210840802806D0FFE701A8AD
:103EA0004078800600280FD5FFE702A800780006BA
:103EB000002808D5FFE703980168254808610398A2
:103EC000FFF754FCFFE7FFE701A84078C007002890
:103ED0000FD0FFE702A800780006002808D5FFE70A
:103EE000039801681B4808610398FFF73BFCFFE754
:103EF000FFE701A800784006002810D5FFE702A8D8
:103F000000784006002809D5FFE7039801684020A3
:103F1000C0430861039800F02BFBFFE7FFE701A80F
:103F200000788006002810D5FFE702A800788006F8
:103F3000002809D5FFE7039801682020C0430861E5
:103F40000398FFF717FCFFE7FFE704B080BDC0460A
:103F50007FDFFFFFFFFEFFFF10B594B0139000203E
:103F60001290119010900F900E90139800684E4987
:103F7000884245D1FFE7FFE74D48026801210A4327
:103F80000260006808400D900D98FFE7FFE7484881
:103F9000026802210A430260006808400C900C98F5
:103FA000FFE701200690C0020E90022005900F90BE
:103FB00000210991109111911290052000070EA97E
:103FC0000791FDF73DFF059B06980799099A08247C
:103FD0000E940F931092119212903648FDF730FF15
:103FE00036480890042100F0C9F908980C2100F027
:103FF000C5F9089909980A6890630968086450E04F
:1040000013980068294988424AD1FFE7FFE728480A
:10401000026801210A430260006808400B900B9877
:10402000FFE7FFE72248026802210A4302600068B6
:1040300008400A900A98FFE7C0200E9002200090E6
:104040000F90002004901090119001200190129088
:10405000052000070EA90291FDF7F2FE009B0198D2
:104060000299049A0E900F93109211921290114897
:10407000FDF7E6FE04991048039000F07FF90398DD
:10408000042100F07BF90398082100F077F90399E7
:1040900004980A6850630A6890630968C863FFE778
:1040A000FFE714B010BDC046002C014000040040E2
:1040B0003410024000040050CC03002034030020E0
:1040C00081B0009001B0704780B586B00490039134
:1040D000029201A900200870FFE704983C21405C8F
:1040E000012804D1FFE705A902200870E4E0049943
:1040F0003C2201208854FFE7FFE702980090142833
:1041000000D9CBE00098810001A040588746C04606
:10411000654100089D4200089D4200089D4200083C
:10412000974100089D4200089D4200089D420008FA
:10413000CD4100089D4200089D4200089D420008B4
:10414000FF4100089D4200089D4200089D42000872
:10415000354200089D4200089D4200089D4200082B
:104160006742000804980068039901F031FE049842
:104170000168886908221043886104980168886989
:104180000422904388610398026904980168886951
:104190001043886186E004980068039901F08EFE60
:1041A0000498016888690122D30218438861049841
:1041B000016888699202904388610398006902024D
:1041C000049801688869104388616BE0049800686E
:1041D000039901F0FDFE04980168C86908221043A4
:1041E000C86104980168C86904229043C8610398B3
:1041F000026904980168C8691043C86152E00498D4
:104200000068039901F06AFF04980168C8690122F7
:10421000D3021843C86104980168C86992029043A8
:10422000C86103980069020204980168C8691043D4
:10423000C86137E004980068039901F0ADFF049865
:104240000168486D08221043486504980168486D6C
:104250000422904348650398026904980168486DF8
:10426000104348651EE004980068039901F0EAFFD6
:1042700004980168486D0122D302184348650498E8
:104280000168486D920290434865039800690202F4
:1042900004980168486D1043486503E001A90120B6
:1042A0000870FFE7FFE704993C2200208854FFE7ED
:1042B000019805A90870FFE705A8007806B080BD41
:1042C00080B582B000900098002804D1FFE701A9D2
:1042D0000120087045E000983D21405C002808D18D
:1042E000FFE700993C2200208854009800F03DF838
:1042F000FFE700993D2202208854009901C901F08E
:10430000A1FC0099482201208854FFE700993E2231
:104310000120885400993F228854009940228854F3
:1043200000994122885400994222885400994322DE
:104330008854FFE7FFE70099442201208854009940
:10434000452288540099462288540099472288546F
:10435000FFE700993D220120885401A90020087040
:10436000FFE701A8007802B080BD81B0009001B0E5
:10437000704781B0009001B07047000080B590B0E8
:104380000E900D910D98002805D1FFE70E983E2163
:10439000405C0B9034E00D98042805D1FFE70E989F
:1043A0003F21405C0A9028E00D98082805D1FFE7DE
:1043B0000E984021405C09901CE00D980C2805D116
:1043C000FFE70E984121405C089010E00D981028FE
:1043D00005D1FFE70E984221405C079004E00E985B
:1043E0004321405C0790FFE707980890FFE7089893
:1043F0000990FFE709980A90FFE70A980B90FFE7FA
:104400000B98012804D0FFE70FA9012008709CE059
:104410000D98002805D1FFE70E993E22022088540E
:1044200038E00D98042806D1FFE70E993F220220BC
:10443000885406902CE00D98082806D1FFE70E99C5
:1044400040220220885405901FE00D980C2806D1C8
:10445000FFE70E99412202208854049012E00D9843
:10446000102806D1FFE70E994222022088540390BB
:1044700005E00E994322022088540390FFE7039839
:104480000490FFE704980590FFE705980690FFE782
:104490000698FFE70E9800680D990122019201F03D
:1044A0004BFC01980E9909682A4A9142029010D05B
:1044B000FFE70E9801680120274A9142029008D038
:1044C000FFE70E9800682549401841424841029094
:1044D000FFE70298C007002808D0FFE70E980168A0
:1044E000486C0122D20310434864FFE70E9800682D
:1044F0001849884206D0FFE70E980068184988429C
:1045000018D1FFE70E9800688068164908400C90A3
:104510000C9806280DD0FFE70C9801210904884269
:1045200007D0FFE70E980168086801221043086071
:10453000FFE706E00E980168086801221043086052
:10454000FFE70FA900200870FFE70FA8007810B060
:1045500080BDC046002C01400044014000B8FEBFB1
:10456000000400400700010081B0009001B07047D6
:1045700081B0009001B07047FFE7FEE781B0009086
:10458000009800688069022108404008002805D092
:10459000FFE70098016800208862FFE70098006844
:1045A0008069C007002807D1FFE700980168886983
:1045B000012210438861FFE701B0704780B58AB0DF
:1045C00009900891079206A90020087009990968C6
:1045D0008969059104900798039005A80078C006A2
:1045E000002800D484E0099801681020C861FFE722
:1045F00009980068806920210840410900200029AD
:10460000009006D1FFE706A800784142484100909B
:10461000FFE70098C007002858D0FFE70898401C23
:10462000002852D0FFE7FDF7B5FD0399401A08991D
:10463000884204D8FFE70898002845D1FFE7099889
:1046400000684068012189030840029009984221CE
:10465000405C01A9087009980068806980B2C00BAD
:10466000002816D0FFE7029801218903884210D064
:10467000FFE701A8007820280BD0FFE70998016820
:1046800048680122920310434860FDF783FD0390C0
:10469000FFE7FFE70998006880692021084040098A
:1046A000002810D1FFE7FDF775FD0399401A1A287D
:1046B00008D3FFE7049820210843049006A90120AD
:1046C000087000E0E6E7FFE7FFE791E706A800785B
:1046D000002805D1FFE7099801682020C861FFE79D
:1046E000049804210843049006A901200870FFE7FC
:1046F000099800688069059005A84078C0070028DF
:104700000BD0FFE7049901200143049109990A683D
:104710000102D16106A90870FFE705A840784007AB
:1047200000280CD5FFE70498082108430490099855
:10473000026801208102D16106A90870FFE705A87F
:104740004078800700280CD5FFE704980221084331
:1047500004900998026801204102D16106A90870FD
:10476000FFE706A8007800281DD0FFE70998FFF7AB
:1047700005FF0998016848680D4A10404860049A8E
:104780000999486C104348640999412220208854B3
:104790000999422200208854FFE70999402200200D
:1047A0008854FFE7FFE706A800780AB080BDC0463E
:1047B00000E800FE10B588B00291014602980B9CFB
:1047C0000A9C069105A9088004A8028003AA138008
:1047D000069809881278534B0093002300F0A4F840
:1047E00006980A990B9A00F07AF9002804D0FFE79E
:1047F00007A90120087034E003A80088012806D129
:10480000FFE704A8007806990968886216E004A802
:10481000407806990968886206980A990B9A00F010
:104820005EF9002804D0FFE707A90120087018E00E
:1048300004A80078069909688862FFE706980A9B31
:104840000B9900914021002200F098F8002804D034
:10485000FFE707A90120087003E007A900200870FE
:10486000FFE707A8007808B010BDC04610B588B0B3
:104870000291014602980B9C0A9C069105A90880AA
:1048800004A8028003AA1380069809881278254B91
:10489000009301231B0600F047F806980A990B9A2B
:1048A00000F01DF9002804D0FFE707A901200870D7
:1048B00034E003A80088012806D1FFE704A80078A7
:1048C00006990968886216E004A840780699096884
:1048D000886206980A990B9A00F001F9002804D022
:1048E000FFE707A90120087018E004A800780699DE
:1048F00009688862FFE706980A9B0B99009180215E
:10490000002200F03BF8002804D0FFE707A90120AF
:10491000087003E007A900200870FFE707A80078E7
:1049200008B010BD0020008010B585B0079C049031
:1049300003A8018002A90A70019300880D4A104063
:10494000097809044018019908430799084301218F
:10495000C907884300900498006840680799490D8A
:10496000884305490840009908430499096848604C
:1049700005B010BDFF030000009C00FC10B586B020
:10498000089C0490039102A802700193FFE7049829
:104990000068806903990840401A4142484102A9D1
:1049A0000978884243D1FFE704980199089AFFF7F4
:1049B00005FE002804D0FFE705A9012008703AE0B1
:1049C0000198401C002831D0FFE7FDF7E3FB089970
:1049D000401A0199884204D8FFE70198002824D1A1
:1049E000FFE704980068806903990840401A414233
:1049F000484102A90978884216D1FFE7049A516C10
:104A00002020014351640499412288540499422290
:104A100000208854FFE70499402200208854FFE7D3
:104A200005A90120087006E0FFE7FFE7AFE705A949
:104A300000200870FFE705A8007806B010BD80B51B
:104A400084B0029001910092FFE7029800688069AB
:104A5000202108404009002839D1FFE70298019938
:104A6000009AFFF7ABFD002804D0FFE703A901205F
:104A7000087030E0FDF78EFB0099401A01998842DA
:104A800004D8FFE70198002820D1FFE702980068CA
:104A90008069202108404009002816D1FFE7029ACA
:104AA000516C20200143516402994122885402999B
:104AB000422200208854FFE70299402200208854B7
:104AC000FFE703A90120087005E0FFE7BDE703A9A0
:104AD00000200870FFE703A8007804B080BD80B50F
:104AE00084B0029001910092FFE70298006880690B
:104AF00002210840400800283FD1FFE702980199B1
:104B0000009AFFF75BFD002804D0FFE703A901200E
:104B1000087036E00198401C00282DD0FFE7FDF713
:104B200039FB0099401A0199884204D8FFE701989F
:104B3000002820D1FFE70298006880690221084020
:104B40004008002816D1FFE7029A516C202001434B
:104B500051640299412288540299422200208854CB
:104B6000FFE70299402200208854FFE703A90120B3
:104B7000087006E0FFE7FFE7B7E703A90020087029
:104B8000FFE703A8007804B080BD0000F0B595B041
:104B9000944800781490032800D921E114988100EA
:104BA00001A040588746C046B94B0008C34B0008D7
:104BB000F34C0008A74D00088A490878401C08708B
:104BC0000EE101231193019389480D9000907D20FF
:104BD000C4000C940294F6481290EB2110911A46EE
:104BE000FDF70AFC0D9A1099119B129802940193FB
:104BF000521C009202220F92FDF7FEFB0D9A1099B3
:104C0000119B129802940193921C00920C22FDF7C2
:104C1000F3FB0D9A1099119B129802940193D21CE8
:104C200000920322FDF7E8FB0D9A1099119B129850
:104C300002940193121D00920422FDF7DDFB0D9AF0
:104C40001099119B129802940193521D0092072211
:104C5000FDF7D2FB1099119B129802940193664ABA
:104C60000E9200922222FDF7C7FB0E9A1099119B1B
:104C7000129802940193521C00922422FDF7BCFB6F
:104C80000F9A1099119B1298029401925B4A00921C
:104C90002522FDF7B1FB1099119B12980294052271
:104CA0000192574A00925122FDF7A6FB0F9A1099E4
:104CB000119B1298029401924B4A13920092712216
:104CC000FDF79AFB1099119B139A12980294019385
:104CD000921C00927722FDF78FFB13988178494A46
:104CE00011708078484908703E490878401C087067
:104CF00076E03E4E0896E72030707D20C400029496
:104D000001230A9301930096A9480B90EA21099187
:104D10001A46FDF7A3FC09990A9B0B98344D6F784E
:104D2000022217437770761C029401930096FDF7D8
:104D300095FC089A09990A9B0B982026D670D21CDC
:104D40000294019300920322FDF788FC089A0999C6
:104D50000A9B0B982D791F2635401571121D029460
:104D6000019300920422FDF779FC089A09990A9BA5
:104D70000B985371521D0294019300920722FDF784
:104D80006DFC09990A9B0B981A4A0A255570521C0A
:104D90000294019300922622FDF760FC11490878E5
:104DA000401C08701CE0022001900F480490009005
:104DB0007D20C40002947E480790EB21059171226A
:104DC00001230693FDF718FB049A0599069B0798A3
:104DD00002940193921C00927722FDF70DFBFFE7EE
:104DE00015B0F0BDD50100203D00002003020020D9
:104DF000FD010020CD010020C9010020CB010020D1
:104E0000DA010020D6010020FC01002080B58AB024
:104E10000120C1036448FDF77BF9002800D1BFE001
:104E2000022001906148069000907D20C000029011
:104E30005F48EB21A2220123FDF7DEFA06984078B5
:104E40008006002817D5FFE7584801784078C0430E
:104E500000025C4A1043401AFBF794FB554A5A4B38
:104E6000FBF7DEFA0022554BFBF728FAFBF7B8FBFD
:104E70005349088013E04D490878497809024018E1
:104E8000FBF780FB4B4A4C4BFBF7CAFA00224B4B1B
:104E9000FBF714FAFBF7A4FB49490880FFE702205F
:104EA00001904A48059000907D20C0000290404843
:104EB000EB21A4220123FDF79FFA05984078800694
:104EC00000281DD5FFE741480178CA4309A90A70A7
:104ED00040781F22824308A80270007800020978F7
:104EE0004018401C079007984042FBF74BFB384A9C
:104EF000384BFBF795FAFBF773FB374908800FE057
:104F000032494878000209784018FBF73BFB304AE9
:104F1000304BFBF785FAFBF763FB2F490880FFE76F
:104F2000022001902D48049000907D20C000029046
:104F30001F48EB21A8220123FDF75EFA0498407870
:104F40008006002817D5FFE7244801784078C04341
:104F500000021C4A1043401AFBF714FB154A1A4B77
:104F6000FBF75EFA0022154BFBF7A8F9FBF738FBBD
:104F70001B49088013E0194908784978090240184C
:104F8000FBF700FB0B4A0C4BFBF74AFA00220B4BDA
:104F9000FBF794F9FBF724FB11490880FFE700E0D9
:104FA000FFE70AB080BDC04600080050C4010020E1
:104FB000E0020020ABCFD556EC2FD13F0050A440EB
:104FC000C601002000E0FFFFEC2FD1BFC001002090
:104FD00057CF49EF1BDFE73FBE010020C201002091
:104FE0000000002081B0009000988068504908407F
:104FF000801C0099886001B07047C04681B0009065
:10500000009880684A490840401C0099886001B0B7
:105010007047C04681B00090009880680121090760
:105020000843434908400099886001B07047C04672
:1050300081B000900098006807218905084001B000
:10504000704782B001900091019840690099042254
:10505000114007228A401040C84002B0704781B01A
:105060000090009880680121084001B0704781B02D
:10507000009000988068012109070840000F01B0E6
:10508000704781B000900098806804210840800833
:1050900001B0704781B000900098C0680321890278
:1050A00008404142484101B07047000082B0019081
:1050B0000091009A034802400199886A104388626F
:1050C00002B07047FFFF070082B001900091009886
:1050D000C243044802430199886A1040886202B0C2
:1050E0007047C0460000F8FF83B002900191009223
:1050F0000298806A019A1F210A400F2319469140A5
:10510000884300999B061940890E914008430299F3
:10511000886203B07047000081B0009000988068FA
:1051200003490840001D0099886001B07047C046DF
:10513000E8FFFF7F83B002900191009202984069DE
:1051400001990A02904300991140034A1140084313
:105150000299486103B0704700FFFF0782B00190D9
:105160000091019800680721890588430099084348
:105170000199086002B0704783B0029001910092DB
:1051800002984069019A04210A400721914088430E
:105190000099914008430299486103B070470000AC
:1051A00080B586B0002101910591049103912B48AF
:1051B00002902B4A02600122D30743608160C160E4
:1051C0005305036108234361017641768276032308
:1051D000C361416281622C23C2540163072242638E
:1051E00082633C228154C164FCF7CAF8002803D0D2
:1051F000FFE7FBF757FDFFE71A48039000200490F4
:105200000590164803A9FBF771FE002803D0FFE7BD
:10521000FBF748FDFFE714480390042004900F4873
:1052200003A9FBF763FE002803D0FFE7FBF73AFD75
:10523000FFE70E48039008200490084803A9FBF7F5
:1052400055FE002803D0FFE7FBF72CFDFFE70348DE
:1052500007499622FCF7A4FA06B080BD2002002080
:10526000002401400800000C001000B004000008F9
:105270009200002080B582B0FFE70A480268012151
:105280000A4302600068084001900198FFE7092086
:10529000009000221146FDF7F2FB0098FDF7E4FBB9
:1052A00002B080BD3810024010B58CB000200B90C9
:1052B0000A90099008900790FFE7204802680221B1
:1052C0000A4302600068084006900698FFE7FFE77F
:1052D0001A48026804210A430260006808400590E9
:1052E0000598FFE7FFE71548026801210A430260BD
:1052F0000068084004900498FFE70520000702902A
:105300000F4C002201922146FCF72DFF019801214C
:105310000091C9030791089009900A4807A90391D1
:10532000FCF78EFD009B019A02980399079408935D
:1053300009920A92FCF784FD0CB010BD34100240B3
:10534000231000000008005080B582B0164801907C
:105350001649016016494160002181600122C26046
:10536000016141618161C1610162FCF7B5FF002803
:1053700003D0FFE7FBF796FCFFE70B480021FCF7A3
:105380000FFF002803D0FFE7FBF78CFCFFE7064880
:105390000021FCF750FF002803D0FFE7FBF782FC59
:1053A000FFE702B080BDC046E0020020005400408C
:1053B000CA32304080B50B480B4901603F21416043
:1053C000002181606322C26001618161FEF7D2FA2F
:1053D000002803D0FFE7FBF765FCFFE70148FEF775
:1053E0006DFB80BD800300200020004080B59EB092
:1053F000002001901D901C901B901A9019901890FD
:105400001790169015901490139012901190109080
:1054100003A83421FAF773FE01993B4802903B4AF6
:10542000026041608160754AC260016141618161D1
:10543000FEF7A0FA002803D0FFE7FBF733FCFFE7F5
:10544000012000031A9030481AA9FEF787FB0028B4
:1054500003D0FFE7FBF726FCFFE72B48FEF730FF02
:10546000002803D0FFE7FBF71DFCFFE700201790A3
:1054700018901990244817A9FEF712FA002803D0B3
:10548000FFE7FBF70FFCFFE7602010900020119072
:10549000129013901490159016901B4810A9042296
:1054A000FEF712FE002803D0FFE7FBF7FBFBFFE748
:1054B000154810A90C22FEF707FE002803D0FFE7CD
:1054C000FBF7F0FBFFE700200090039004900590AD
:1054D0000690079001214A03089209900A900B90C8
:1054E00049060C910D900E900F90074803A9FEF706
:1054F00045F9002803D0FFE7FBF7D4FBFFE702489C
:10550000FEF72AFD1EB080BD34030020002C0140B0
:1055100080B590B0002101910F910E910D910C91E9
:105520000B910A91099108910791069105910491B7
:10553000039102912F48304A0260416081602F4AF6
:10554000C26001618161FEF715FA002803D0FFE710
:10555000FBF7A8FBFFE7012000030C9025480CA9EE
:10556000FEF7FCFA002803D0FFE7FBF79BFBFFE701
:105570002048FEF7A5FE002803D0FFE7FBF792FBCB
:10558000FFE7002009900B901A4809A9FEF788F957
:10559000002803D0FFE7FBF785FBFFE760200290C0
:1055A0000022039204920692124802A9FEF78CFD93
:1055B000002803D0FFE7FBF775FBFFE70D4802A9C2
:1055C0000422FEF781FD002803D0FFE7FBF76AFB0A
:1055D000FFE7084802A90822FEF776FD002803D05D
:1055E000FFE7FBF75FFBFFE70248FEF7B5FC10B0F3
:1055F00080BDC046CC03002000040040FF1800001E
:10560000FFE7FEE77047000080B58EB0F548002147
:105610000C91405EFAF7A4FFF3490B91FAF710FEE4
:105620000B99FAF70DFEF149FAF70AFE0146F04828
:105630000D900068FAF76EFD0C9902460D98026015
:105640000068FAF771FF002804D1FFE7E84900205D
:105650000860FFE70120C103E648FCF759FD002878
:1056600000D106E2E44800780006400F002800D18F
:105670008FE0E2480078172805DCFFE7DF4908786B
:10568000401C087003E0DD4900200870FFE705209A
:10569000000720210022FCF766FDD8480078410071
:1056A000F548405AF5490880FA480068F449FAF785
:1056B0003BFF00280FD1FFE7F248016819200002E4
:1056C0000864F1490A68D0630A689063FD4800885D
:1056D0000968486340E0EF480068EC49FAF724FFA6
:1056E000002810D1FFE7F8480168192002020A6477
:1056F000F6490B68DA63F34A12880B689A63096803
:10570000C001486327E0E3480068F449FAF70CFF5A
:10571000002810D1FFE7EC4802681920010211644B
:10572000E8490A88E9490B68DA630A68C0019063AE
:10573000096848630EE0E3480088E34909680864A3
:10574000E2490A681920C001D0630A6890630968B9
:105750004863FFE7FFE7FFE7CF480078000700282E
:1057600006D4FFE70021CA48405E002810D5FFE7B5
:10577000C849DB480860D44801681920C0010864A2
:10578000D2490A68D0630A68906309684863FFE7F2
:105790000CE1C24800783C2800D106E1BD48006811
:1057A000BF49FAF7A5FE00280DD1FFE7C6480168FA
:1057B0001920C0010864C5490A68D0630A6890636B
:1057C00009684863F0E0B3480068B649FAF790FE0C
:1057D00000280ED1FFE7BC480268192001021164BD
:1057E000BA490A68C001D0630A68906309684863CF
:1057F000D9E0A8480068AC49FAF77AFE00280ED133
:10580000FFE7B1480168192002020A64AF490B683A
:10581000DA630A68C001906309684863C2E09D4882
:105820000068A249FAF764FE00280ED1FFE7A648F7
:105830000168192002020A64A4490B68DA630B6844
:105840009A630968C0014863ABE0924800689849D0
:10585000FAF74EFE00285AD1FFE796480188491C06
:105860000180018894484843994940180122D04159
:10587000884212D8FFE7934800881921C90188425D
:1058800005D1FFE78F4919200002088004E08D4907
:105890001920C0010880FFE7FFE78A4801888A4A8B
:1058A00012681164028889490B68DA6302880B6800
:1058B0009A630088096848637E4800888549884261
:1058C00024DBFFE77B498448088005200007099016
:1058D000202100220A92FCF746FC09980A9A01212D
:1058E0000903FCF740FC6D493220087075480188B7
:1058F000754A12681164028874490B68DA63028879
:105900000B689A63008809684863FFE748E06948C4
:105910000188491C0180018867484843674940184D
:105920006749884212D8FFE7664800881921C901F3
:10593000884205D1FFE7634919200002088004E08E
:1059400060491920C0010880FFE7FFE70520000734
:105950000790202100220892FCF705FC0798089A7E
:1059600001210903FCF7FFFB4C4932200870554820
:105970000188554A12681164028854490B68DA6339
:1059800002880B689A630088096848634948008860
:10599000FB2804DBFFE74749FB200880FFE7FFE720
:1059A000FFE7FFE7FFE7FFE7FFE7FFE7FFF7EEF8B7
:1059B0004C480078002805D0FFE74A490878401E87
:1059C000087055E0484800783349897888424ED0BD
:1059D000FFE73148807844490870304800783C2817
:1059E00039D00DE0BE0100200000704200002041CF
:1059F000F8010020000800503D000020C8010020F0
:105A0000052000070490202100220592FCF7ABFB43
:105A10000498059A012106910903FCF7A4FB069B53
:105A20001E493C20087028480168192000020864BB
:105A300026490A68D0630A689063096848637D2034
:105A4000C000029001932A4800902A48EA211A4691
:105A5000FCF704FE0AE0104880782449097888425F
:105A600003D0FFE7FDF719F8FFE7FFE7FFE7FFE7E0
:105A700000E0FFE70EB080BD02000020D80100204A
:105A80000080094434030020CC03002000808944B6
:105A9000BE010020F80100203D000020CF010020C1
:105AA0000000DC4400C0994400005C440000DC437A
:105AB00000007043F0010020CDCCCCCC999999190D
:105AC00032333333D801002034030020CC030020CC
:105AD00098999919590200005D0200000040CE44D7
