:020000040000FA
:10000000300D0020D5000000651C0000E118000044
:1000100000000000000000000000000000000000E0
:100020000000000000000000000000001D21000092
:100030000000000000000000BD2000007525000049
:100040008B2700004B1A0000BF2000007114000035
:10005000152300009D1400009F140000A11400004F
:100060000000000000000000000000000000000090
:10007000250B0000450E000087270000892700009F
:100080005D1600000917000000000000491A00007A
:10009000FD100000FF1000000111000051190000C8
:1000A00000000000C12000000000000081270000C7
:1000B00083270000852700000000000003110000D6
:1000C0000348854600F00AFD004800472D3A00002D
:1000D000300D00200448804704480047FEE7FEE753
:1000E000FEE7FEE7FEE7FEE79D250000C1000000F9
:1000F000F0B51FB40646002082B0054640240191A9
:1001000000901BE0019922460F46304600F072FB3A
:10011000049A059B801A994110D31046194622462D
:1001200000F058FB361A8F4101972246012000212A
:10013000009F00F04FFB38184D4100902046641E90
:100140000028DFDC019B00982946324607B0F0BD4D
:1001500003460B439B0703D009E008C9121F08C0E0
:10016000042AFAD203E00B780370401C491C521E8B
:10017000F9D27047D2B201E00270401C491EFBD296
:1001800070470022F6E710B513460A4604461946A2
:10019000FFF7F0FF204610BDF8B502464A40D40FE5
:1001A00042004B0052085B089A4202D202460846BF
:1001B00011464A0023D0C30D4A00DDB2120EAD1A1B
:1001C000202D35DA49020126490AF6058A19002C44
:1001D00000D0524220214F1B1146B9402A4110182D
:1001E000C20D9A4221D0002C17D0012D08DCDA056F
:1001F000801AD20F8019D207DBB200F027FBF8BDBE
:10020000DA05801A012340001B06C01880185A42E4
:100210008018CA0F1043490007E04908C20711437C
:10022000DA05801A80194008801800F007FBF8BD35
:1002300061000122511A001BF7E70122D207514049
:10024000AAE70122D2075040A6E7024670B54A400D
:10025000D30FDB0740002DD04A002AD0010E140E28
:10026000000212020919400A520A8418E5010446E4
:100270005443000A120A2E045043A4194219200CB8
:10028000C543AA18120C0125AD03521C52191204C1
:100290007F39240400D0521C104301D44000491E71
:1002A000C2B20C06C0092018401C4008802A02D0A7
:1002B00003E0002070BD40084000002900DA002063
:1002C000184370BD70B502464A40D50F40004A0041
:1002D000ED0740085208002814D0002A12D0C40D9F
:1002E000D30D41020120C0055202490A520AE41A04
:1002F000091812187D34914201D3641C00E04900B2
:10030000002C01DA002070BD0023914201D3891A2C
:100310000343400849000028F7D100290AD0914240
:1003200002D10121C90705E0914201D2012101E07A
:100330000121C943E005C018401900F07FFA70BDE3
:10034000F0B507460846584087B0C00F04904800F3
:100350000E46590040084908BC1A884105D2384663
:1003600031461E4617460B460246580040081043C9
:100370004CD0300D039040055900400D490D0590BB
:10038000401A0290402872DA18030121000B090577
:100390000843019004980092002805D00199524228
:1003A0000020884100920190029840210A1A019988
:1003B000009800F00FFA05460C466B4607CB00F09C
:1003C0002AFAC0197141039A0E0D0023D71756401F
:1003D0001A467A40164344D0049A002A2DD0029A35
:1003E000012A039A15DC1205C01A9141012636052F
:1003F000001C7141D20F059ED20700930192029614
:100400002A46234600F068FA07B0F0BD3846314668
:10041000FAE71605224A0F46B218C01AB741012161
:100420000905001C4F4100187F41114618187941F9
:10043000E20F10436D19644113E0E2076D081543A4
:100440006408C2071443039A01261205C01A914199
:100450003605001C7141CE07400830434908C018DA
:1004600051412A46234600F02AFACDE7FFE70498D7
:1004700001224000C117121A00238B410498314613
:10048000C417381AA141EEE730B40124E4076340F1
:1004900030BC55E730B40124E407614030BC4FE77D
:1004A0000000E0FFF0B51FB488B00B990998002454
:1004B00048400999C00F490049080991C0070B99A4
:1004C0000090490049080B9109990898A6460843ED
:1004D0001CD00B990A98084318D0099801244000B1
:1004E000420D4800410D099824050003000B2043EC
:1004F00009900B980003000B20430B9050181C49E7
:100500004018002201901446104605E000200146E4
:100510000DB0F0BD032801DA034600E003239C463A
:10052000C11A0AAE0AE05F0008ADED5B4F00F75B51
:100530007D430027AA187C41491C5B1E6145F2DD02
:10054000410004AB5A522104120C0A43240C401CF3
:100550000828DFDB01980290009970460191009015
:10056000059B049A0799069800F0B6F9D0E70000B9
:100570000DFCFFFFF0B50C465C4085B0E40FE407CE
:1005800003944C000026640859009446490802462A
:100590000296224321D062460A431ED06200570DC4
:1005A0004A000E032303550D012402462C4924055D
:1005B000781B1B0B360B40182343264361460090E3
:1005C0001C46501AB44103D30098401C009002E02E
:1005D000921800985B41002803DA0020014605B01C
:1005E000F0BD0020012109050746864611E064465A
:1005F0001D46141BB54106D36546521BB3417446D4
:1006000007430C43A646CD074008490828439218E3
:100610005B4105460D43EAD11046184313D06046AE
:10062000194650407140084306D06046101AB34145
:1006300006D20122002306E000220123DB0702E0AC
:100640000122D2435310009874460105381C6141C1
:10065000029C039D0019694100F031F9BFE70000D9
:10066000FD0300000122D207002800DB101A002938
:1006700000DB511A814201D80120704700207047E9
:100680000122D207002800DB101A002900DB511AD2
:10069000814201D201207047002070470122D20719
:1006A000002800DB101A002900DB511A814201D317
:1006B0000120704700207047C217C10F504010B58D
:1006C0004018CA079623002100F0C0F810BD10B5ED
:1006D00000229623114600F0B9F810BD0EB5C217DE
:1006E000C10F5040CA0740180021054B02930192E8
:1006F00000910A460B4600F0EFF803B000BD000081
:1007000033040000C20F410040020123400ADB0510
:10071000D207090EC0187F2901DA002070479629F8
:1007200003DC9623591AC84001E096398840002A14
:10073000F4D040427047C20FD207400040080BD0AF
:10074000C10D0723DB01C91840020905400A114306
:10075000C208400711437047002001467047CB0F85
:10076000DB07490010B5490802460A4307D00A0DC5
:1007700007240903E401090B121B002A01DC0020F5
:1007800010BDC900440F0C43C100E018D205801809
:1007900000F054F810BD70B50446002903D00020C5
:1007A0002022012310E0002801D00020C043C046D1
:1007B000C0460DE02546D5408D4205D30D469540F7
:1007C000641B1D46954040191546521E002DF1DC54
:1007D000214670BD10B5202A04DB0146203A914025
:1007E000002010BD914020239C1A0346E34019438A
:1007F000904010BD10B5202A04DB0846203AD040B6
:10080000002110BD0B46D340D0402024A21A9140B5
:100810000843194610BD10B5202A06DBCB17084641
:10082000203A1041C1170B4306E00B461341D0405C
:100830002024A21A91400843194610BD002904DA69
:10084000401C490001D140084000704770B40024AA
:10085000050C05D11024000402D1002921D0112457
:10086000050E01D100020834050F01D10001241D3D
:10087000850F01D18000A41C002801DB4000641C0E
:10088000002908D020252E1B0D46F540A14000D0A0
:1008900001212943084301061B1B000ADB1D02D569
:1008A000002070BC7047DB05181880180029F8DAA2
:1008B000401C4900F5D170BC40084000704710B59D
:1008C000002B08DA0024401C614192185B411A4356
:1008D00001D14008400010BDF0B51FB482B00546FC
:1008E0000C0003D0084607F081F902E007F07EF91A
:1008F00020300246009021462846FFF76BFF049BFC
:10090000059A04460F4618431143084314D018466D
:1009100010431BD0009840210A1A18460599FFF78A
:1009200069FF05460E46009A05990498FFF752FFA5
:10093000084305D0012004E02046394607B0F0BD49
:100940000020C11705430E432C43374300990E98EE
:100950006305401A7905E40A00220C43FD0A0A30B7
:1009600002D500200146E9E70105101969410C9CF8
:100970000D9D00196941FFF7A2FFDFE770B54B003D
:100980005B0803430BD04B005C0D002633466542E9
:10099000B341D417AD1AA34102DB0020014670BD5C
:1009A00012053018514170BDFEB500231A461B1ABE
:1009B0008A4103DB0020014603B0F0BD4A000D036D
:1009C00001212D0B0905520D0D43D10702D100184D
:1009D0006D41521E5110FF31FF3101310027044695
:1009E0003E46384600970191024601210020090544
:1009F000FFF700FFC3197141F818324684468E464E
:100A00004A4161462846611A904104D36046241A3F
:100A1000954176461F46241900986D41401C009070
:100A20003428E1DDF91930467041091BA84103D291
:100A30000022D243134601E000221346019801052B
:100A4000381C7141FFF73BFFB6E700004A0009037D
:100A50000123090B1B0519430A4B10B5520D9A428D
:100A600002DA0020014610BD064B34339A4203DC03
:100A70009A1AFFF7BFFE10BD034BD218FFF7AAFE6C
:100A800010BD0000FF030000CDFBFFFF10B50029E3
:100A900004DB0124E40740428C412146002B04DBA7
:100AA0001C460123DB075242A3418B4200D1824204
:100AB00010BD000010B5002904DB0124E40740420A
:100AC0008C412146002B04DB1C460123DB075242EC
:100AD000A341994200D1904210BD00001CB50948C5
:100AE00000900948019005460126009C05E0E36856
:100AF00007CC33430C3C98471034AC42F7D3FFF794
:100B0000E3FA0000A09E0000C09E00000149002002
:100B10000860704778000040012082071168014397
:100B20001160704780B501F0CBFF80BD82B001AA93
:100B3000108000910098002807D0FFE701A80288E4
:100B4000064908681043086006E001A802880349C6
:100B5000086890430860FFE702B0704774000040E7
:100B6000F0B588B0079069490868694A1043086081
:100B70000120810708683F22D2009043079BDA6872
:100B80001C6822435B681A43104308600798007A88
:100B9000002807D0FFE701208107086802221043E0
:100BA000086006E00120810708680222904308607F
:100BB000FFE70798407A002807D0FFE70120810768
:100BC000086804221043086006E0012081070868D5
:100BD000042290430860FFE7079841694D4A106876
:100BE0000F2301931940DB43009318404018106015
:100BF0000798C16910680907090EF023DB430493C5
:100C00001840401810600798416A10680907090DDC
:100C1000414B03931840401810600798C16A106850
:100C20000907090C3D4F3840401810600798416B88
:100C300010680907090B3A4E3040401810600798B9
:100C4000C16B10680907090A364D2840401810602A
:100C50000798416C106809070909334C2040401877
:100C600010600798C16C10680907304B1840401895
:100C700000991060079802692D480690006802905C
:100C8000019802400298084003998018069A106063
:100C90000798806912680007000E059004980240CA
:100CA0000598121806980260079A126A00681207DF
:100CB000120D08400699801808600798826A086833
:100CC0001207120C3840801808600798026B0868F9
:100CD0001207120B3040801808600798826B086872
:100CE0001207120A2840801808600798026C0868EA
:100CF000120712092040801808600798826C086863
:100D0000120718408018086008B0F0BD3840004055
:100D100001005A5A2C000040FFF0FFFFFF0FFFFFB9
:100D2000FFFFF0FFFFFF0FFFFFFFFFF0FFFFFF0FD1
:100D30002800004081B00090009A0449086801230F
:100D40001A4098438018086001B0704700140040B2
:100D5000704800687047C04681B0009000980268F3
:100D60003649086803231A409843801808600098A1
:100D7000426808689207120F0C2398438018086095
:100D80000098826808681207120EF02398438018B2
:100D900008600098C0682A490A68C007830F0220CB
:100DA0008243D2180A60009AD26802400868920012
:100DB00008239843801808600868012210430860DF
:100DC00001B0704710B581B00090009802681B49CF
:100DD00008689207920D03231C02A0438018086044
:100DE0000098426808689207120D9B029843801889
:100DF00008600098826808681207120C0F231B0312
:100E00009843801808600098C2680D490868D207A6
:100E1000920E20239843801808600098C268022030
:100E2000024008689201802398438018086008688F
:100E300010221043086001B010BDC04618140040D5
:100E4000201400407047000083B002900191029886
:100E5000009005284ED80098810001A04058874690
:100E6000790E00008B0E0000A10E0000B70E0000EE
:100E7000CD0E0000DF0E0000019A214908680F2303
:100E80001A4098438018086035E0019A1C490868A8
:100E90001207120D0F231B029843801808602AE0E6
:100EA000019A174908681207120B0F231B04984375
:100EB000801808601FE0019A11490868120712099A
:100EC0000F231B0698438018086014E0019A0B4911
:100ED00008680F231A409843801808600BE0019AB5
:100EE000064908681207120D0F231B029843801849
:100EF000086000E0FFE703B07047C0466C14004094
:100F00005C14004081B0009000980249086001B074
:100F10007047C0462414004010B581B001466846B1
:100F2000017003780724234008490A68A243D218B5
:100F30000A600278086808231A40520301231B0440
:100F400098438018086001B010BDC04608140040E6
:100F500080B588B0604800780790042800D9B9E0CF
:100F60000798810001A040588746C046810F0000C5
:100F7000BD0F00003310000071100000971000003A
:100F80000920C00605900121049109030022069260
:100F900000F04FFB04990598069A890200F049FB7E
:100FA00006984E4908604F480078002805D0FFE7B2
:100FB00049490878401C0870FFE78BE00920C0060B
:100FC0000122910200F035FB44490868401C08608A
:100FD00047480078002805D0FFE7464800780028F9
:100FE00005D0FFE73C490878401C087020E03E48E7
:100FF0000078002805D0FFE737490878401C0870C2
:1010000015E0364800683C4988420FD3FFE7354871
:101010000078002804D1FFE72F490020087004E081
:101020002E49E12080000860FFE7FFE7FFE7FFE7C8
:1010300050E00920C0060122110300F0FAFA2B4803
:101040000078002808D1FFE70920C00601218902A5
:10105000002200F0EEFA06E00920C006012291020B
:1010600000F0E7FAFFE71C490878401C087031E0FF
:101070001C480078002805D0FFE71B4800780028AE
:1010800005D1FFE714490878401C0870FFE71349B1
:10109000002008601EE011480168491C01600068DA
:1010A0000F490968884214D9FFE70920C006029059
:1010B0000121019109030022039200F0BAFA01997B
:1010C0000298039A890200F0B4FA03980249087062
:1010D000FFE7FFE708B080BD480000204400002083
:1010E00038000020DA04002082040020860400205A
:1010F0004B000020840400208503000070477047E7
:101100007047704780B582B0014601A80180002178
:1011100000910088FFF7D0FA0549FFF796F80721FC
:10112000C906FFF792F80090009802B080BDC04653
:101130000000D74380B598B016900020109015900D
:10114000149013901290119057481590574814908E
:1011500057481390574812901598FFF7ECFA0C90E7
:101160000D9114980B9013981699FFF76EF801469D
:101170000B98FFF762F8FFF7DEFA07F0E5FB02468F
:101180000C980B460D99FFF7DBF80E900F91129813
:10119000FFF7D1FA02460E980B460F99FFF7EAF9CE
:1011A000FFF7DDFA109911901198FFF769FA0028FE
:1011B00003D1FFE71198179073E0169800903E490D
:1011C000FFF743F83D49FEF7E7FFFFF7B4FA0246A1
:1011D000009801920291FFF7AEFA07900891384A01
:1011E000384BFFF75FF9079A089BFFF75BF9019A05
:1011F000029BFFF7A5F80246079803920A46089952
:101200000492314A314BFFF74DF9079A089BFFF7DB
:1012100049F9079A089BFFF745F9024603980B46E0
:101220000499FFF78DF80246079805920A46089937
:101230000692274A274BFFF735F9079A089BFFF7D5
:1012400031F9079A089BFFF72DF9079A089BFFF7DA
:1012500029F9059A069BFFF773F802460798099249
:101260000A4608990A921C4A1C4BFFF71BF9079A79
:10127000089BFFF717F9079A089BFFF713F9079ADE
:10128000089BFFF70FF9079A089BFFF70BF9099ADC
:101290000A9BFFF755F8FFF762FA11901198179023
:1012A000FFE7179818B080BD321180BB17839337C2
:1012B000706DC6B27F059BB55B420E401F0572C3C1
:1012C000BB82C87D062F653F93C266C7E03DD4BE92
:1012D000CE563151E2425EBE3EFAE46127F3E43D70
:1012E00080B5C4B0439042A8017006A8F021FEF773
:1012F00048FF0020059038490491039002A9087026
:101300000870FFE702A8007842A9097888420DDA40
:10131000FFE7439802A909788A00805806A98850F7
:10132000FFE70298401C02A90870EBE702A9002021
:101330000870FFE702A8007842A90978884235DAE8
:10134000FFE702A800900078810006A801904158AC
:101350000398FEF721FF009A0199039005981278EF
:1013600092008958FFF79AF9002807D1FFE702A8F1
:101370000078810006A840580590FFE7049802A96C
:1013800009788A0006A98958FFF76CF9002807D167
:10139000FFE702A80078810006A840580490FFE704
:1013A000FFE70298401C02A90870C3E7059804995A
:1013B000FEF7F2FE01460398FEF73FFF039042A8B6
:1013C0000078801EFFF778F901460398FEF77AFF50
:1013D0000390039844B080BD00FF7F4781B0009028
:1013E00005480078012805DBFFE703490878401E1F
:1013F0000870FFE701B070476406002080B584B034
:101400001A48008800280FD0FFE70920C006029084
:10141000012103914902002200F00BF90298039A7E
:10142000110200F006F91FE00920C0060190012218
:101430000092510200F0FDF800990198090300F0B4
:10144000D9F8002808D0FFE70920C00601210902C9
:10145000002200F0EEF806E00920C0060121090292
:1014600000F0DEF8FFE7FFE704B080BD3C0000209D
:101470007047000081B000905B490868044A10433F
:1014800008600098034908430349086001B07047A9
:1014900002005A5A00005A5A04200240704770470E
:1014A0007047000083B002900191029800900921DA
:1014B000C90688420AD0FFE70098494988420BD004
:1014C000FFE70098474988420CD011E04649086878
:1014D000474A104308600CE043490868434A1043F8
:1014E000086006E040490868D34A1043086000E0FD
:1014F000FFE701984068002807D1FFE701980268DC
:101500000299C8691043C86167E0019802680299AE
:10151000C8699043C86101980079C006002841D588
:10152000FFE7019802680299086810430860019873
:10153000026802990869904308610198406811287F
:1015400007D1FFE701980268029908691043086112
:10155000FFE7019802680299486A9043486201983F
:1015600002680299886A90438862019880688121A4
:101570000840812807D1FFE7019802680299486A6C
:1015800010434862FFE70198806882210840822862
:1015900007D1FFE7019802680299886A10438862C0
:1015A000FFE719E001980268029908689043086013
:1015B00001984068202807D1FFE701980268029946
:1015C00048689043486006E00198026802994868BC
:1015D00010434860FFE7FFE7FFE703B07047C046EE
:1015E00000010048000200483040004020005A5AE4
:1015F00010005A5A84B0009101460098029101A946
:1016000008800298006D0988084203D0FFE7012096
:10161000039002E000200390FFE7039804B07047B6
:1016200082B001906846018000880199086602B086
:10163000704783B0029001A80180009200980128B1
:1016400005D1FFE701A800880299C86504E001A858
:10165000008802998865FFE703B0704780B5774836
:10166000012100F068F8002838D0FFE71C48008806
:101670001C49884205DCFFE719490888401C08809E
:1016800006E0174900200880174901200880FFE77D
:10169000134801886339154848430221C841144959
:1016A000884204D8FFE7134901200880FFE70C486F
:1016B000018811484843114940180221C841104986
:1016C000884204D8FFE70F4901200880FFE700F0B7
:1016D00065F95A48012100F018F8FFE780BDC046BF
:1016E000E2040020E7030000DE040020295C8FC232
:1016F000275C8F02DC040020D578E926D178E92622
:101700006D128300E0040020704782B001900091C8
:101710000098C0430199086702B0704782B00190F9
:101720000091009A0199086801231A409843801893
:10173000086002B0704782B0019000910198006982
:1017400000990840411E884102B0704783B0029062
:10175000019100920098002806D0FFE7019A0299B3
:10176000C8681043C86005E0019A0299C8689043B0
:10177000C860FFE703B0704782B001900091019804
:101780000068FE218843009A1168536819439368E2
:101790001943D36819431369194352691143084324
:1017A0000199086000988069019988620098C06971
:1017B0000199C8620199886807229043886002B045
:1017C00070470000014800687047C046CC06002002
:1017D00080B58AB000200990089007900690059087
:1017E000049003900290134A1168134B194311603F
:1017F0000390802102910490042106915F210891B9
:1018000005907D21C900099107900C48009002A91C
:10181000FFF7B2FF0098012201921146FFF796FFF1
:1018200000980199FFF77AFF00980199FFF76DFF83
:101830000AB080BD3840004040005A5A00180040AD
:1018400080B584B003A9002002900870FFF780FAE9
:101850000299024621480280405E012816DBFFE71C
:1018600003A900200870FFE703A8007800221B49A5
:10187000895E884209DAFFE7012001F0F3FFFFE704
:101880000398401C03A90870EEE7FFE70021134806
:10189000405E002819D5FFE703A900200870FFE784
:1018A00003A8007800220D49895ECA175140891AA1
:1018B000884209DAFFE7002001F0D4FFFFE7039830
:1018C000401C03A90870EBE7FFE700200190FFF739
:1018D00019FB01985949087004B080BD50000020E0
:1018E000FFE7FEE714488188144801800088144906
:1018F00088420DDCFFE713480088FF21F43188425D
:1019000005DCFFE70F490888401C0880FFE703E07B
:101910000C4900200880FFE70A4800880A49097836
:10192000884204DBFFE709490120087003E007490A
:1019300000200870FFE77047180500204C000020C9
:10194000B30F0000800400208504002082040020E2
:101950007047000080B584B00390039802900D4852
:1019600001687D20C000FEF716FF01460298FEF7D1
:1019700012FF00F0D7FD002801D0FFE708E00021AA
:101980000191C84300F0C0FF019803490860FFE7D8
:1019900004B080BD300000203400002080B5AE4887
:1019A0001021FFF727FE00281DD1FFE721480088FE
:1019B0002149884205DCFFE71E490888401C088051
:1019C000FFE71C4800887D210901884207D1FFE715
:1019D0001A4902200870032001F044FFFFE718496C
:1019E0000020087025E016480078C72805DCFFE7CE
:1019F00013490878401C0870FFE711480078142844
:101A000016D1FFE70B480088002811D0FFE70948EE
:101A100000880C49884204DCFFE7022001F022FF25
:101A2000FFE7064901200870024900200880FFE70F
:101A3000FFE780BD4E000020871300004A00002011
:101A400008000020CF0700007047704780B586B0BF
:101A50002D4800780590032854D80598810001A0EE
:101A600040588746751A00009F1A0000C31A0000EC
:101A7000ED1A00000920C006039001220492110310
:101A8000FFF7D7FD0398049A9102FFF7D2FD224990
:101A9000002008601C490878401C087032E01E488D
:101AA00000681E490968884205D2FFE71A4908689C
:101AB000401C086004E014490878401C0870FFE7E7
:101AC00020E00920C00601900121009109030022B5
:101AD0000292FFF7AEFD00990198029A8902FFF782
:101AE000A8FD09490878401C08700BE0074802214E
:101AF00001700078064948700649002008700249C4
:101B00000870FFE706B080BD58000020E804002000
:101B100084060020480000205C00002060000020B7
:101B200080B584B003A8002202704B4802900821BF
:101B30000191FFF77EFD802001F09EF9D32001F096
:101B40009BF9019902980122FFF773FD04B080BD53
:101B500010B58CB0002200920B920A920992089262
:101B6000079206A8059002703A48029002704270EF
:101B70008270C270027142718271C271F348049026
:101B800008210391FFF755FD009801F075F9FF203A
:101B9000019001F071F9029A01460198117001F06B
:101BA0006BF9029A01460198517001F065F9029AA9
:101BB00001460198917001F05FF9029A014601987F
:101BC000D17001F059F9029A01460198117101F0A2
:101BD00053F9029A01460198517101F04DF9029AA8
:101BE00001460198917101F047F90299C87148784E
:101BF0000002897841181948018000884008FFF7E1
:101C000081FA0399059B024604981B789C0007AB58
:101C10001A510122FFF70DFD059913200870FFE707
:101C200006A8007801280EDBFFE706A800780C491B
:101C300082008818001F00688850FFE70698401E41
:101C400006A90870ECE70798FFF774FA04490860E2
:101C50000CB010BD660000200001004864000020A8
:101C600088040020704780B572B60D2000F02AFE6F
:101C7000102000F027FE62B680BD000081B0002079
:101C800000900948007807280ADCFFE70649087831
:101C900042010648801800900878401C0870FFE751
:101CA000009801B07047C04664060020640500201B
:101CB00010B59CB0002014901B901A90199018A990
:101CC0000880554805900088FEF701FD01468B20ED
:101CD000C0050690FEF7B1FA014650480790FEF79E
:101CE000F1FA4F490891FEF7A8FA4E490991FEF71B
:101CF000ACFA1B901B98FEF71EFD06F07BFCFEF76E
:101D00002EFD19901998FEF716FD01900291464A92
:101D10000A92464B0B93FEF7C5FB454A0C92454B86
:101D20000D93FEF70DFB0246019803920A460299B5
:101D30000492414A0E92414B0F93FEF7B3FB019A76
:101D4000029BFEF7AFFB019A029BFEF7ABFB039AE7
:101D5000049BFEF7F5FA024614980B463849159194
:101D6000FEF708FC032252071692364B1793FEF734
:101D70008BFBFEF7F4FC01460598334A116040885E
:101D8000FEF7A5FC01460698FEF757FA01460798AC
:101D9000FEF798FA0899FEF750FA0999FEF755FAF6
:101DA0001A901A98FEF7C7FC06F024FCFEF7D7FC41
:101DB00019901998FEF7BFFC0A9A0B9B109011918D
:101DC000FEF770FB0C9A0D9BFEF7BAFA0E9A0F9B6A
:101DD0000446109812940C4611991394FEF762FB76
:101DE000109A119BFEF75EFB109A119BFEF75AFBAF
:101DF000129A139BFEF7A4FA024614980B46159903
:101E0000FEF7B8FB169A179BFEF73EFBFEF7A7FC02
:101E10000E4908601CB010BD1805002000002047C6
:101E20000000204100007A442FAF5E28C0B12E3F51
:101E30003AEFF6738F8B523FBD0965AF0A6A763E63
:101E40000000F03F66127140700000207400002016
:101E500080B5194801218902FEF793F980BDC0467B
:101E600080B582B001A8AE218170044901800321B0
:101E7000002200F03FF802B080BDC0468D10000087
:101E800080B582B001A8AF2181700449018003218F
:101E9000002200F02FF802B080BDC0468D14000073
:101EA00080B50021084600F009F8034801218902A5
:101EB000402200F01FF880BD7A00002080B584B079
:101EC00000910246009803A90A7002AA1070029AB3
:101ED000B03201A802700A781209103242700978F3
:101EE0000F22114081700321002200F003F804B09A
:101EF00080BD000080B584B0039002A8018001A8D5
:101F0000009002700920C00610210022FFF791FB0B
:101F100000980078002806D1FFE70C480221002233
:101F2000FFF787FB05E0094802210122FFF781FB4B
:101F3000FFE7039802A9098801F0BCFE0920C0064A
:101F400010210122FFF775FB04B080BD000100489D
:101F500080B584B0574801783B4A117041783B4ABC
:101F600011700221425E3C215143394A116081794E
:101F7000384A1170C27903215143891C364A1170C5
:101F80004089002804D1FFE74B20C000039006E001
:101F900048484189E120000148430390FFE7039846
:101FA0002E4908604349087B2D4A1070487B2D4A12
:101FB00010700A7C3C2050432B4A1060487C2B4A0E
:101FC00010708A7C2A480270C97C2A4A11700078F5
:101FD000002821D0FFE7374802900421405EFEF739
:101FE0006BFB04F051FE01460298234A11600E215A
:101FF000405EFEF761FB04F047FE014602981F4A6F
:10200000116008214056FEF757FB04F03DFEFEF735
:1020100079FB1B49087015E0264801900421405EB9
:10202000FEF74AFB01460198134A11600E21405EFB
:10203000FEF742FB01460198104A1160007A1049F0
:102040000870FFE704B080BD84040020E80400208D
:10205000600000204B000020850400203800002094
:102060008604002052000020540000208704002035
:10207000DB04002053000020E40400200C000020BA
:10208000D904002080B50B490020087048704880B2
:1020900005228A808871C871087248810873487364
:1020A000054ACA81087448748874C87404F0D6F963
:1020B00080BDC04684060020F1FF000070477047D5
:1020C000704782B001900091009A019948680123FD
:1020D0001A4098438018486002B0704782B001905F
:1020E0000091019800680C490840009A11689368B3
:1020F000194353691943136A1943D36919439369FF
:10210000194353681943D3681943126911430843AB
:102110000199086002B0704700F0ECFF70470000C2
:1021200080B584B00020039002900190D3480068ED
:10213000072108400290714800684004000F019098
:1021400002980090042822D80098810001A04058ED
:102150008746C046692100007B2100008F210000D6
:102160008121000087210000019881001348415817
:102170001348FEF710FB039012E00F4803900FE0A6
:102180000C4803900CE00120C003039008E0019884
:1021900081000A4841580A48FEF7FDFA0390FFE71C
:1021A0000398B64909680906490FC8400390039887
:1021B00004B080BD208000000024F400E4930000FF
:1021C00000D8B80581B00090AC490868044A1040B6
:1021D000009A1043AA4A1043086001B07047C046F5
:1021E0001FFF000050490868A54A1043014A1040EB
:1021F00008607047FDFF5A5A84B0029001A93E481A
:10220000088002980121C902884206D1FFE73C49B3
:1022100008683E4A104308603AE002980121090329
:10222000884206D0FFE702980321C902884216D1EE
:10223000FFE7324800684004000F012809D1FFE79A
:102240000298F1490988F24A11400843EF490860B1
:10225000FFE72B4908682C4A1043086017E0EB4859
:1022600000684004000F032809DCFFE70298E649F4
:102270000988E74A11400843E4490860FFE720491C
:102280000868204A10407E4A80180860FFE7FFE790
:102290000298DD490988DE4A11400843DB4908609D
:1022A000214908681A4A10430860FFE7D7480168C7
:1022B000002009040029009006D4FFE701A8008847
:1022C000411E88410090FFE70098C007002805D014
:1022D000FFE70198401E01A90880E7E701A80088F0
:1022E000002803D1FFE70120039002E000200390C3
:1022F000FFE7039804B07047FFFF0000184000405C
:10230000084000408FFF000010005A5A30005A5A0F
:1023100001005A5A7047000003490868584A1043A0
:10232000024A10400860704704400040EFFF5A5ACC
:1023300081B0009051490868044A1040009A104347
:102340004F4A1043086001B07047C046E7FF0000E5
:1023500080B582B0019049490868064A1040019A48
:102360001043474A10430860FFF7DAFE00F08CF88C
:1023700002B080BDF8FF000080B584B002900298E2
:10238000019004280ED80198810001A0405887468A
:10239000A7230000C9230000A5230000DF230000BD
:1023A00003240000FFE734480068C007002807D076
:1023B000FFE7314800680005C00F002803D1FFE7A0
:1023C0000120039055E03CE02B480068C004C00F9A
:1023D000002803D1FFE7012003904AE031E02648BE
:1023E00000680007C00F002807D0FFE722480068F8
:1023F0004004C00F002803D1FFE70120039038E01C
:102400001FE01D4800688006C00F012815D0FFE7B7
:1024100019480068C006C00F00280ED0FFE7164814
:1024200000680004C00F002807D0FFE712480068CA
:102430008006C00F002803D0FFE70120039018E0BA
:10244000FFE70E49009108680D4A10430D4A1040FD
:10245000029A10430860FFF763FE00F015F8009839
:102460000068072108400299401A411E88410390E4
:10247000FFE7039804B080BD1040004000400040DA
:1024800000005A5AF8FF5A5A81B00090009841490A
:10249000086001B07047C04680B584B00920C0060E
:1024A000029001210191090300220392FFF7C1F874
:1024B00001990298039A8902FFF7BBF8039805492E
:1024C000087005490870054908700549086004B09E
:1024D00080BDC04649000020480000205800002070
:1024E0005C00002080B584B00390FFF76BF9029088
:1024F000039801900198401C002806D0FFE721486E
:102500000168019840180190FFE7FFE7FFF75AF9CB
:102510000299401A0199884201D2FFE7F6E704B018
:1025200080BDC04680B584B002900298401E000E67
:10253000002803D0FFE70120039011E00298401E1D
:102540000949086000200190C043032100F0DCF934
:10255000019806490860064A072111600390FFE7C9
:10256000039804B080BDC04614E000E018E000E02D
:1025700010E000E00348026803490868801808601A
:102580007047C04630000020CC06002001490248B8
:10259000086070471000002000093D0010B51A487F
:1025A00002881A4801681A4B1A401A4B19408918B8
:1025B000016019490B88194A1168194C2340194CBC
:1025C0002140C9181160006840051749884209D1A7
:1025D000FFE70E4908680F22D20110437F22904383
:1025E0000860FFE70D48006880051049884207D160
:1025F000FFE70A4908680B4A10407F300860FFE790
:10260000FFF7C4FF10BDC046C007100018400040CF
:10261000FF07000000F8FFFFC20710002040004045
:10262000FF03000000FCFFFF0000E0FF0000C0FF10
:1026300080B507488078012108400649087006489F
:102640001421FEF74DFE45490860FFF769FA80BD89
:1026500066000020830400208804002080B582B03A
:102660007B480078002805D1FFE73E4800683C49D8
:10267000086004E03948006839490860FFE73A48D3
:102680000078002855D0FFE73548006839490968C7
:10269000FEF704F8002807D1FFE73749012008704A
:1026A00033490020087043E02D4800682F4909682D
:1026B000FDF7F4FF002834D1FFE7294800682D49D1
:1026C0000968FDF7CFFF00282BD1FFE72A480078E3
:1026D00000281ED0FFE722480068019025480068C6
:1026E0002649FDF759FD01460198FDF7BBFF00287B
:1026F00007D1FFE72049002008701D49012008701C
:1027000006E01D4901200870194900200870FFE704
:1027100006E0194900200870154901200870FFE7FC
:1027200005E015490020087011490870FFE7FFE730
:1027300011E00B4800680D490968FDF7AFFF00285C
:1027400004D1FFE70A490120087003E0084900208E
:102750000870FFE7FFE702B080BDC0467C040020A0
:10276000400000207000002052000020E4040020FF
:10277000DA0400200C000020D804002000004040B3
:1027800070477047704770477047704780B5304852
:102790000078002821D1FFE72E480088142806DBA6
:1027A000FFE72C4800882C49884211DBFFE72B48C3
:1027B0000078022805DCFFE728490878401C0870EB
:1027C00005E03E490888012210430880FFE703E046
:1027D000224900200870FFE7FFE721480078002821
:1027E00021D0FFE7EC484088142806DBFFE7EA48E1
:1027F00040881949884211DBFFE71A48007802280F
:1028000005DCFFE717490878401C087005E02B49F4
:102810000888022210430880FFE703E011490020E6
:102820000870FFE7FFE725480088002807D0FFE78A
:102830000920C0060122D102FEF7FBFE07E00920B5
:10284000C0060121C9020022FEF7F3FEFFE780BDAA
:102850008704002018050020D30F00007800002016
:102860004B0000207900002080B582B0FFF770FB9C
:10287000FFF78CFFFEF7C2FD10480088002803D048
:10288000FFE7FFF709FE17E00D48007801900028E8
:1028900008D0FFE70198012807D0FFE70198022838
:1028A00006D008E0FFF7F8FD05E0FFF7CFF802E0FB
:1028B000FEF74EFBFFE7FFE702B080BD3C000020C3
:1028C000E804002081B000900098002808D4FFE7B9
:1028D00000991F200140012088400A490860FFE755
:1028E00001B0704781B000900098002808D4FFE73D
:1028F00000991F2001400120884002490860FFE73D
:1029000001B0704700E100E070B582B00190009125
:102910000198002814D4FFE701980321CB43184005
:10292000164A805801998C07E50EFF24AC40A0435D
:10293000009CA401E4B2AC4020431940885018E048
:1029400001980F24204008380321CB4318400A4A3D
:10295000805801998D07EE0EFF25B540A843009DD4
:10296000AD01EDB2B54028432140083919408850E7
:10297000FFE702B070BDC0461CED00E000E400E0DF
:1029800080B5044804497D22D200002301F0B8FF3D
:1029900080BDC04698060020BD48000080B50348B1
:1029A00003493222002301F0ABFF80BDB0060020B6
:1029B000E948000080B5FFF7F1FFFFF7E1FF80BDB8
:1029C000124900200880704780B50F480068002831
:1029D00004D1FFE70D490020088014E00B4801886E
:1029E000491C018000880A280DDBFFE70749002009
:1029F000088000F0D7FF064800F0EAFE03F02EFD45
:102A000000F012FCFFE780BDC8060020EA040020A9
:102A10000D71000080B582B001900348034A09217E
:102A200000F034FA02B080BD74940000F94B00004D
:102A300080B582B001900348034A042100F026FAD1
:102A400002B080BD4C9500006D4D000080B59AB07D
:102A5000D7490868D74A10430860D8490868164A19
:102A60001043086000201990189017908021199148
:102A70001890072017900920C00617A9FEF712FD2D
:102A80000E4903A801905022FDF762FB0198FEF762
:102A900067F8FEF73BF8022001210291FEF746F8A5
:102AA0000C20FFF71FFFFEF737F8029A3B49086832
:102AB000104308601AB080BD01005A5AD089000046
:102AC00010B51649002008601548016815480278BD
:102AD0005300304AD1521449096803785B00D31877
:102AE000C82419531149096803785B00D2181923C7
:102AF0001B01D1520178491C0170007864280BDB5E
:102B0000FFE708490020087021480122027023498C
:102B1000086890430860FFE710BDC0467800004099
:102B200040000040280900204400004048000040C8
:102B300080B584B016480078002826D0FFE71449F5
:102B400000200870134802906421019100F096FE65
:102B5000019902460298104B03931A80C83000F086
:102B60008DFE0199039B024602985A801922120198
:102B7000801800F083FE03998880084908680122C4
:102B800010430860FFF794F8FFE704B080BDC0462B
:102B900029090020D0060020180500200800004068
:102BA00010B58CB0002001900B900A90099008900D
:102BB000079006900590814908687F4A1043086095
:102BC000AA4908681043086080200B9010200A90E2
:102BD000702009907B4809A9FEF764FC0199134A0B
:102BE000106807231C052043106010681B0618435B
:102BF00010600846FEF728F9019901200490FEF7BD
:102C000023F90F200390079005A80290FEF7A4F87F
:102C1000029803990791FEF7D5F80398FEF77CF91F
:102C20000498FEF787F80CB010BDC04618010048A4
:102C300080B58CB08D4908685E4A1043086008680A
:102C40005D4A104308600868894A10430860002004
:102C500008900B900A900990802004900B902020FF
:102C600000900A9001200590400307900990814848
:102C7000069009A90191FEF715FC0199059811220A
:102C80000A92C00309900920C006FEF70BFC0098C9
:102C900001990A900820029009904A480390FEF793
:102CA00001FC009B01990398049A0A930992FEF78C
:102CB000F9FB02990398059AFEF7BBFC0398049967
:102CC000059AFEF7B6FC06980799089AFEF7B1FC3C
:102CD0000CB080BD82B001A9087069460A20087056
:102CE000FFE76A461078411E1170002802D0FFE706
:102CF00000BFF6E702B07047B0B594B05B49086812
:102D00002C4A1043086008682B4A104308602B497E
:102D100008682B4A1043086000200490139012901A
:102D2000119080201390202003901290B0201190D9
:102D30000920C00611A90091FEF7B4FB00990320F9
:102D4000019011901F48FEF7ADFB019A1E490868DB
:102D5000072302931C05A0431405001908600868A6
:102D60001B07984312078018086008A805902421C3
:102D7000FDF707FA029B039A04980599012407942A
:102D80002504089509941B020A9308230B93042336
:102D90000C9302230D930E920F9010900B48069007
:102DA000FFF79CF906980799FFF78BF914B0B0BDAF
:102DB0003040004010005A5A20005A5A3840004013
:102DC00004005A5A0001004818000048000800405A
:102DD00082B0019068460180FFE76A461088411E74
:102DE000118000280FD0FFE7FFE70C480068C007FC
:102DF000002801D1FFE7F8E70198411C0191007814
:102E000007490860E9E7FFE704480068C0050028B3
:102E100001D5FFE7F8E702B07047C046140800404C
:102E20001C08004080B586B010490868104A10435D
:102E300008600020059004900390802005902120D8
:102E400004900320800303900A48019003A9FEF731
:102E500029FB0198012202929103FEF7EAFB0198F7
:102E6000029AD103FEF7E5FB06B080BD304000407A
:102E700040005A5A0002004880B582B0014601A8BD
:102E80000170007803F060FA02B080BD84B0029057
:102E900001A801700092E3480068002804D1FFE710
:102EA0000020C043039012E00298F6490A681061BE
:102EB0000198096808770098002805D0FFE7009876
:102EC000F0490968C860FFE700200390FFE7039816
:102ED00004B0704710B586B000200490E94801683E
:102EE0000391006800280CD0FFE7E64800680069FD
:102EF000002806D0FFE7FB48007CC007002804D16B
:102F0000FFE70020C043059061E0FEF7B7FE0490A4
:102F1000002804D1FFE70020C043059057E0049A41
:102F2000039908698C7F18210B466343C058506091
:102F3000039A1069937F0A465A4380184069049A9D
:102F40009060049A00201061049A1077039AD26866
:102F5000049BDA60039B1A699C7F0B466343D2187B
:102F6000D268049B5A61039B1A699C7F0B4663439A
:102F7000D2181269049B9A61049A9077049A0120EE
:102F8000D0770398049A10600498F84A1060049867
:102F90004069D060039A1069927F5143401840689D
:102FA000002811D0FFE7F1480168496801910068E5
:102FB00080680290039908698A7F1821514340185C
:102FC000416801A88847FFE700200590FFE70598C2
:102FD00006B010BD10B586B004A90870E3480168BA
:102FE00003910068002806D0FFE7E048007CC00796
:102FF000002804D1FFE70020C04305904CE0FB48C7
:1030000000680068002804D1FFE70020C043059055
:1030100042E0F64900910868006808600868406965
:10302000C8600398FEF7DAF900980021039101685F
:1030300008698A7F182151434018806800281DD0F4
:10304000FFE7EA4801680A698C7F18210B46634351
:10305000D258019203681A699C7F0B466343D218C9
:103060005269029203680022DA7702681069927F3F
:1030700051434018816801A88847FFE704A80078F9
:10308000C007002805D0FFE7D848016800208877EE
:10309000FFE700200590FFE7059806B010BDC04689
:1030A000D2480068807F704780B584B002900020CD
:1030B0000190CE480068002804D0FFE70020C043FC
:1030C00003903BE01F4900200870FEF7D7FD0190F8
:1030D000002804D1FFE70020C04303902EE00199AF
:1030E00002980068486002984069019988600199D7
:1030F000002008600299C968019A51610199C8606D
:1031000002990969019A9161019908610199087709
:1031100001998877019948770199B44A1160117C27
:10312000FE23194011740299496851600299896817
:10313000916001994969D1600390FFE7039804B059
:1031400080BDC0466406002083B0019000910198C4
:10315000002804D0FFE70098002804D1FFE70020F2
:10316000C04302902BE000980078019909788842CA
:1031700005DDFFE70198007800990870FFE70199E5
:1031800048788978884204DAFFE70199487888709E
:1031900012E0019948788978401A009909788842A4
:1031A00008DBFFE701994878009A1278801A401CE2
:1031B000887000E0FFE7FFE700200290FFE7029839
:1031C00003B0704780B584B0D7480068002806D0A7
:1031D000FFE7D548007CC007002804D0FFE70020A7
:1031E000C04303901AE0D048406800280BD0FFE7A6
:1031F000CD48016849680191016889680291416878
:1032000001A88847FFE7C849087C012210430874D9
:1032100008684069C86000200390FFE7039804B085
:1032200080BDC0467006002080B582B0BE480068F0
:10323000002806D0FFE7BC48007CC007002804D166
:10324000FFE70020C043019019E0FFE70120FFF7EE
:10325000C1FE002801D1FFE7F8E7B34880680028E5
:1032600005D0FFE7B048816800208847FFE7AE49F6
:10327000087CFE221040087400200190FFE70198AE
:1032800002B080BD7006002082B069460870A64872
:10329000006800280CD0FFE7A348006800690028F8
:1032A00006D0FFE7A048007CC007002804D1FFE754
:1032B0000020C043019012E0684600789A490968EE
:1032C000097F884204DBFFE70020C043019006E04D
:1032D000009895490968887700200190FFE70198D8
:1032E00002B070477006002082B0694608708E48B0
:1032F000006800280CD0FFE78B48006800690028B0
:1033000006D0FFE78848007CC007002804D1FFE70B
:103310000020C043019025E083480168887F097F31
:10332000491E884206DAFFE77F480168887F401C13
:10333000887714E068460078C007002805D0FFE7CA
:10334000794801680020887708E077480168087F9D
:10335000401E88770020C043019003E0FFE7002073
:103360000190FFE7019802B07047C0467006002048
:1033700082B0694608706C48006800280CD0FFE7EE
:10338000694800680069002806D0FFE76648007CAD
:10339000C007002804D1FFE70020C043019022E0CD
:1033A00061480068807F012806DBFFE75E4801680E
:1033B000887F401E887713E068460078C0070028A1
:1033C00006D0FFE758480168087F401E887706E06E
:1033D0005548016800208877C043019003E0FFE76B
:1033E00000200190FFE7019802B0704770060020AE
:1033F000B0B5A2B04C480068002806D0FFE74A48A4
:10340000007CC007002804D1FFE70020C0432190C2
:1034100087E04548C06800280FD0FFE74248039086
:10342000016849680691016889680791C16806A822
:10343000884703990020C860FFE73B48006800699F
:10344000002859D0FFE73848016809691F910168D1
:10345000097F08AA11700168897F51700168497F4E
:103460009170016849680991006880680A9000209D
:103470002090FFE7209908A802780020914202904E
:103480000CDAFFE720990120002200920A2901901E
:1034900001DB0098019001980290FFE70298C007B5
:1034A000002817D0FFE7209DA80008A90A181F9838
:1034B00018231C466C430059D0601F98209A534330
:1034C000C0184069920089184863FFE72098401CA3
:1034D0002090CFE714480068C068002806D0FFE7B6
:1034E00011480068C16808A88847FFE708A88078E5
:1034F0000D4909684877FFE70B4800688069002894
:103500000CD0FFE7084801684968049101688968A0
:1035100005910068816904A88847FFE70020219091
:10352000FFE7219822B0B0BD7006002080B582B0C0
:1035300001900548054A0221FFF7A8FC044880795C
:10354000FFF7A2FE02B080BDAC950000754E0000F2
:103550008406002080B582B001900348034A01210F
:10356000FFF794FC02B080BDDC950000A54F000081
:1035700080B582B001900348034A0121FFF786FC21
:1035800002B080BDF49500009D50000080B582B06F
:10359000014601A8017002780120C1031248FEF71C
:1035A00048F802B080BDC04680B582B0014668468A
:1035B0000170007801280BDCFFE7684602780120E3
:1035C00081030948FEF735F801A90020087007E0DB
:1035D000012081030448FEF70DF801A90870FFE7F8
:1035E00001A8007802B080BD0002004880B582B01A
:1035F000014601A801800088FEF774FF02B080BD7B
:1036000080B584B003A90020087002A90870019059
:1036100003F02EF8FFE7002002A9012200F01AF8BB
:1036200001900398411C03A801700078042805DB71
:10363000FFE7074804F096FAFFE7FEE70A20FFF7E6
:10364000D5FFFFE701980028E5D1FFE704B080BD72
:103650004C9A000080B586B001920A460199034653
:1036600005A80380049203AA11800021029100881A
:103670000499128800F004F80290029806B080BD08
:1036800080B588B0034606A80380059104A90A8086
:1036900000220392028805980988019100904B4806
:1036A0005021082302F0EEFF03900398002803D076
:1036B000FFE70120079002E000200790FFE707984E
:1036C00008B080BD10B58CB003460AA803800991EC
:1036D00008A90A80002307930999069105AA138077
:1036E00004A90B8003AC238002AC2380038807204D
:1036F00003400820C01A10800A980880FFE708A835
:103700000088012839DBFFE708A8008805A9098897
:10371000884204DDFFE705A80088019003E008A8BF
:1037200000880190FFE7019802AA108004A8008891
:10373000069903AB1B88C918128800F025F807907A
:103740000798002803D0FFE707980B9018E00620A1
:10375000FFF74CFF02990898401A08A908800299BF
:103760000398401803A9088002990498401804A9F6
:10377000088005A908200880C1E707980B90FFE79B
:103780000B980CB010BD000080B588B0034606A8A9
:103790000380059104A90A800022039202880598FB
:1037A00009880191009009485021082303F016F878
:1037B00003900398002803D0FFE70120079002E060
:1037C00000200790FFE7079808B080BDEC040020B8
:1037D00080B582B0019000F005F80198204908609A
:1037E00002B080BD80B5244802F09EFC80BDC0467A
:1037F00080B584B003A90291002008701E480949D1
:1038000010220123019302F04EFD01990246029815
:10381000027000780840012802D0FFE7FFE7FEE7CA
:1038200004B080BDF804002080B582B0124801A920
:1038300002F084FC002810D0FFE709480068002847
:1038400006D0FFE70648016801A800788847FFE72F
:1038500000F064FAFFF7B4F8FFE702B080BDC0469D
:103860006806002080B582B001A90870024802F005
:10387000C0FC02B080BDC0460805002080B584B001
:10388000039002910020019000900190FFE70198C1
:10389000029988420CD2FFE7039801994900415AE6
:1038A000009840180090FFE70198401C0190EEE757
:1038B00000980299FCF76FFF80B204B080BD000051
:1038C000014800787047C0461E05002080B584B0CE
:1038D0000290FFF7F5FF014601A801700078022869
:1038E00003DBFFE70C48039010E002982B2803D37A
:1038F000FFE70948039009E00298C1000548401815
:1039000001A90978890040580390FFE7039804B0A3
:1039100080BDC04624960000388A000080B586B07D
:1039200000200590049003900F4908680F4A104347
:10393000086080200590202004901F200002039042
:103940000920C006019003A9FDF7ACFD01980122F2
:1039500002925102FDF76DFE0198029A1102FDF7E5
:1039600068FE06B080BDC0463040004010005A5A84
:1039700080B582B001900348034A0121FFF786FA1F
:1039800002B080BD0C9600009D51000080B582B051
:103990000190002000F076F802B080BD81B0009068
:1039A00001B0704780B582B001900198022801D320
:1039B000FFE705E001980349086000F07FFCFFE79E
:1039C00002B080BDC806002080B582B001900548D5
:1039D000054A0221FFF75AFAC648C07CFFF754FC9B
:1039E00002B080BD7C970000AD52000080B582B06F
:1039F00001900548054A0221FFF748FABD48407B7F
:103A0000FFF742FC02B080BDAC970000DD53000020
:103A100080B582B001900348034A0121FFF736FACE
:103A200002B080BDDC9700000D55000080B582B06B
:103A30000020019003F094F8FFF770FFFFF7F2F910
:103A4000FFF75AF9FFF702F8FFF7DAFD00F0FEF88A
:103A5000FFF7EEF8FFF7A4F8FDF7BAFEFEF760F8FF
:103A6000FFF7C6FEFEF7FFF800F02CF8FEF7A2FF06
:103A700002F004FDFFE7FFF75BF8FFF7D5FE00F06B
:103A8000CBFFF8E780B582B001900348034A0521D7
:103A9000FFF7FCF902B080BDF49700001556000056
:103AA00080B582B001900548054A0321FFF7EEF981
:103AB00090480078FFF7E8FB02B080BD6C980000EA
:103AC0002557000080B50348FFF7EEFA0248FFF7DC
:103AD0007FFE80BD249400000D71000080B582B08F
:103AE000014601A801800088FEF7FCFC02B080BD01
:103AF00070B588B00C4605460D990C9807AE357028
:103B000006AD2C7005AC227004AA137003AA1070C5
:103B100002A801700078002857D1FFE7079801A993
:103B20000870FFE701A8007805A9097888424BDCF6
:103B3000FFE7069869460870FFE76846007804A921
:103B4000097888423ADCFFE7FFE701A800787F2880
:103B50002DDCFFE7684600783F2828DCFFE703A854
:103B60000078002811D0FFE7684600780722014658
:103B7000114001238B40C008C101E248411801A84F
:103B80000278885C1843885410E068460078072261
:103B90000146114001238B40C008C101D94841189A
:103BA00001A80278885C98438854FFE7FFE7FFE7A5
:103BB000FFE70098401C69460870BEE7FFE70198E0
:103BC000401C01A90870ADE73DE0079801A9087005
:103BD000FFE701A8007805A90978884232DCFFE7F1
:103BE000069869460870FFE76846007804A90978D6
:103BF000884221DCFFE701A800787F2816DCFFE778
:103C0000684600783F2811DCFFE768460078072205
:103C10000146114001238B40C008C101B948411839
:103C200001A80278885C58408854FFE7FFE70098B5
:103C3000401C69460870D7E7FFE70198401C01A9BE
:103C40000870C6E7FFE708B070BDC04680B584B015
:103C50000920C006102101220192FDF7EAFC019A19
:103C6000124800900221FDF7E4FC0098019A1146E9
:103C7000FDF7DFFC0098019900220392FDF7D9FCC3
:103C800005200290FFF72AFF0098019A1146FDF7E0
:103C9000D0FC0298FFF722FF039A05481821FEF78F
:103CA00029F9FEF7FDF804B080BDC04600010048C8
:103CB0001400002080B584B0019101460198039161
:103CC00002A9088003980988FFF782F804B080BD34
:103CD00080B582B001900548054A0421FFF7D6F867
:103CE00004484078FFF7D0FA02B080BDB4980000D5
:103CF000355800008406002080B582B0019003484A
:103D0000034A0221FFF7C2F802B080BD14990000F7
:103D10004559000080B5FEF7B5F980BD80B51E4855
:103D20008078012806D1FFE71B490020887000F049
:103D300089FAFFE718490020088080BD80B582B06D
:103D4000014601A801800088002804D1FFE712493C
:103D50000020887015E010488078002801D0FFE727
:103D60000FE00D480188491C0180008801A90988DD
:103D7000884206DBFFE708490120887000F050FA0E
:103D8000FFE702B080BDC04680B5FEF761F880BD98
:103D900001490020C87070476C06002010B586B03D
:103DA000044605A8048004AC218003A90A7002A976
:103DB0000B700021405E002812D4FFE7002105A807
:103DC000405E7F280CDCFFE7002104A8405E00284D
:103DD00006D4FFE7002104A8405E402801DBFFE78E
:103DE0008DE002A8007800283FD1FFE7FFE700211F
:103DF00005A8405E7F2836DCFFE7002104A8405E6E
:103E00003F2830DCFFE703A80078002815D0FFE743
:103E1000002204A8815E480F081807240346A34324
:103E2000C91A01238B40C008C101FC48411805A8EC
:103E3000825E885C1843885414E0002204A8815EE6
:103E4000480F081807240346A343C91A01238B40CF
:103E5000C008C101F148411805A8825E885C9843FA
:103E60008854FFE7FFE7FFE749E0FFE7002105A8E7
:103E7000405E7F2841DCFFE7002104A8405E3F2828
:103E80003BDCFFE703A800780190002205A8805ED4
:103E900004A9895E00F0AAF901460198484000286B
:103EA00015D0FFE7002204A8815E480F08180724F8
:103EB0000346A343C91A01238B40C008C101D74858
:103EC000411805A8825E885C1843885414E00022DB
:103ED00004A8815E480F081807240346A343C91AA3
:103EE00001238B40C008C101CC48411805A8825E5F
:103EF000885C98438854FFE7FFE7FFE7FFE706B0D9
:103F000010BDC0467A00002080B5FDF7C9FF80BD16
:103F1000F0B597B01D4616460891074608981E9AB8
:103F20001D9B1C9C16A90F8015AF388014A8068015
:103F300013AE358012AD2C7011AC237010AB1A701B
:103F40000022805E895E401A002808D5FFE7002223
:103F500014A8815E16A8805E401A079007E0002230
:103F600014A8805E16A9895E401A0790FFE707989B
:103F70000FA90880002213A8805E15A9895E401A47
:103F8000002808D5FFE7002213A8815E15A8805EEF
:103F9000401A069007E0002213A8805E15A9895EEA
:103FA000401A0690FFE706980EA9088000200290AC
:103FB00016A9095E14AA125EC04303900120049062
:103FC0009142059001DB039805900498029B0599A6
:103FD0000DAA118015A9C95E13AAD25E9142019063
:103FE00001DB0398019001980CA908800F980E99A5
:103FF000401A0BA90880FFE712A800784008404249
:104000000A90FFE70A9812A909784908884212DC49
:10401000FFE7002116A8405E15990A9A891811AA8F
:10402000127810AB1B7809B2FFF7B8FEFFE70A98C9
:10403000401C0A90E6E7002216A8805E14A9895E5B
:10404000884209D1FFE7002215A8805E13A9895E86
:10405000884201D1FFE72AE00B98410009A80180BE
:104060000022805E0EA9895E494288420BDDFFE78F
:104070000E990B98401A0BA908800D9916984018B4
:1040800016A90880FFE7002209A8805E0FA9895EB3
:1040900088420BDAFFE70F990B9840180BA90880AC
:1040A0000C991598401815A90880FFE7A4E717B0E8
:1040B000F0BDF0B593B003931746024603981A9EDD
:1040C000199D189C12AB06931A8011AA09921180AF
:1040D00010A908910F800FAF0A9738800EA80B9097
:1040E00004800DAC25700CAD2E7000269B5F0493F0
:1040F000935F8A5F01782778287802900498019767
:1041000000911946FFF704FF069B08990A9A0B983D
:104110009B5F0593935F8A5F0178277828780290E8
:104120000598019700911946FFF7F2FE069A099942
:104130000A9B0B98925F895F9B5F007807902778B6
:10414000287802900798019700901046FFF7E0FE4C
:10415000089A09990A9B0B98925F895F9B5F007888
:1041600024782D780295019400901046FFF7D0FE38
:1041700013B0F0BD70B588B00C4605460D990C988B
:1041800007AE358006AD2C8005AC228004AA1380D2
:1041900003AA107002A801700078002810D1FFE770
:1041A00007A8007806A9097805AA127804AB1B783D
:1041B00003AC2478002501950094FFF799FC0FE0EB
:1041C00007A8007806A9097805AA127804AB1B781D
:1041D00003AC2478012501950094FFF789FCFFE7E3
:1041E00008B070BD3748C0787047C046B0B582B0DF
:1041F00001AB1880684601800024015F480F0A184F
:10420000D008C501D94840191B5FC05C07239A43F9
:10421000891AC8400121084002B0B0BD7A000020D0
:1042200080B5FDF71DFE80BD80B582B001900348CA
:10423000034A0121FEF72AFE02B080BD4499000026
:10424000755A000080B5FDF71BFE80BD10B58CB01F
:104250000E9C0BAC20800AA80180099208930FA83D
:1042600007900E9A079B144802903F2103F0A6FC8A
:104270000298002106910591049103910B9903AADC
:10428000019211800A99518009990691089900F0CC
:1042900065FA01460198018108994989418100F038
:1042A00013F80199029B0420085E0622895E089A91
:1042B00000F004FA0CB010BD2405002001490120D3
:1042C000C87070476C06002082B001900198C068E9
:1042D00000900F2800D9E5E00098810001A0405827
:1042E0008746C04625430000334300005D4300007D
:1042F0007943000029440000454400006744000061
:104300008344000095430000A3430000B74300002E
:10431000C5430000D9430000E7430000FB43000011
:104320000F44000001990888888001994888C88056
:10433000BFE001990A898020801AC20F80184008C6
:104340000A888018888001994A894020801AC20F03
:10435000801840084A888018C880AAE001990A8914
:104360008020801AC20F801840080A888018888030
:1043700001994888C8809CE0019908888880019943
:104380004A894020801AC20F801840084A88801845
:10439000C8808EE001990888888001994888C88083
:1043A00087E001990A890888801A803088800199FD
:1043B0004888C8807DE001990888888001994888EC
:1043C000C88076E001990888888001994A894888E0
:1043D000801A4030C8806CE0019908888880019973
:1043E0004888C88065E001990A890888801A803069
:1043F000888001994888C8805BE001990888888096
:1044000001994A894888801A4030C88051E0019952
:104410000A890888801A8030888001994A894888EA
:10442000801A4030C88044E001990A898020801AAF
:10443000C20F801840080A8880188880019948882F
:10444000C88036E001990A898020801AC20F80183E
:1044500040080A888018888001994A894888801A0B
:104460004030C88025E001990888888001994A89F0
:104470004020801AC20F801840084A888018C880DF
:1044800017E001990A890888801A8030888001998C
:104490004A894020801AC20F801840084A88801834
:1044A000C88006E001990888888001994888C880FA
:1044B000FFE702B07047000081B0694608700098BD
:1044C0000149087001B070471E05002010B583B087
:1044D00002AB188001A801806846027000780028AD
:1044E00004D0FFE7694601200870FFE7FFE70021DD
:1044F00002A8405E7F2836DCFFE7002101A8405E6D
:104500003F2830DCFFE768460078002815D0FFE739
:10451000002201A8815E480F081807240346A34320
:10452000C91A01238B40C008C1011048411802A8D4
:10453000825E885C1843885414E0002201A8815EE2
:10454000480F081807240346A343C91A01238B40C8
:10455000C008C1010548411802A8825E885C9843E2
:104560008854FFE7FFE7FFE703B010BD7A000020A3
:10457000B0B592B011AC208010A801800F920E93BC
:104580000F98002801D1FFE796E00E9948898A8AA2
:10459000801A49680F9AD200891807228956401A52
:1045A0000DA908800E99086849680F9AD200895AA7
:1045B00040180C900E9840680F99C9004018407937
:1045C0000BAA10700E9840680F99C9004018007926
:1045D0000AA9087011980E9B5B680F9CE4001B19D8
:1045E00006241B57C01809AB188011980E9B5B68F6
:1045F0000F9DED005B191B57C0181278801808AA90
:10460000108010980D9A80180978401A07A9088020
:1046100010980D99401806A9088005A90020088067
:1046200004A9087003A90870079802A90880FFE789
:10463000002202A8805E06A9895E88423CDAFFE774
:10464000099801A90880FFE7002201A8805E08A957
:10465000895E88422ADAFFE705A801880720014021
:1046600004A80090017001788020C84003AB187046
:10467000002201A8805E02A9895E0C9A12781B783C
:104680001A40FFF723FF00980078072804D1FFE7BE
:104690000C98401C0C90FFE70598401C05A9088069
:1046A000FFE70198401C01A90880CDE7FFE70298C9
:1046B000401C02A90880BBE712B0B0BD10B588B09D
:1046C00007AC208006A80180059204930598002875
:1046D00004D0FFE70498002801D1FFE72CE0002078
:1046E00003900290FFE704980078002824D0FFE7A9
:1046F000049802A900F01EFA01460498401804909C
:104700000598029900F062F80390002207A8019032
:10471000805E06A9895E039A059BFFF729FF019930
:1047200005984068039AD200801840880830020932
:10473000079880180880D6E708B010BD82B00090B6
:104740000098002803D1FFE70020019003E00098C3
:1047500040890190FFE7019802B0704780B586B0AC
:10476000049003910498002804D0FFE703980028E0
:1047700003D1FFE70020059025E000200290019082
:104780000090FFE704980078002819D0FFE704980C
:1047900001A900F0CFF9014604984018049003984D
:1047A000019900F013F80090039840680099C9003F
:1047B0004018408808300109029840180290E1E74B
:1047C00002980590FFE7059806B080BD89B0079074
:1047D0000691002005900490039006980290079897
:1047E000C068019001200090FFE7009807990969CF
:1047F000884211D2FFE70298019A1168526889181D
:10480000884201D2FFE707E0019810300190FFE7EE
:104810000098401C0090E8E7019801680298401A4F
:1048200002900198806800280FD1FFE70298019953
:104830004968884203D3FFE7002008903AE00298D5
:104840000199C9684018089034E001984068401EFA
:104850000490FFE705980499884228D8FFE7059857
:104860000499091A4908401803900198806803992F
:10487000890040580299884206D1FFE703980199C0
:10488000C9684018089015E001988068039989006C
:1048900040580299884204D2FFE70398401C0590D3
:1048A00003E00398401E0490FFE7FFE7D2E70020F3
:1048B0000890FFE7089809B07047000080B582B003
:1048C00001900091FDF70EF8FDF7C8FEFDF7CCFF53
:1048D000FEF77AF803480088FFF730FAFDF7A8FEE4
:1048E00002B080BD5400002080B582B001900091DC
:1048F000FCF7A6FF03F024F8FDF72AF902B080BD0B
:1049000010B586B00490039102A802800193049828
:10491000002809D0FFE70398002805D0FFE702A888
:104920000088002804D1FFE705A90020087069E08D
:1049300004988068002804D0FFE705A900200870CB
:1049400060E0049900200860049948600398049985
:10495000886001980499C860029804998882049933
:104960002A48C88272480068002804D1FFE70498EA
:104970006F4908603EE06E4800680090FFE70098CD
:10498000002836D0FFE70098808A02A9098888426B
:104990001FDDFFE70098006800280AD1FFE70098B4
:1049A0000499486004980099086004986049086078
:1049B0000EE0009800680499086000980499486027
:1049C0000498009909684860049800990860FFE716
:1049D0000FE000984068002807D1FFE7049800998D
:1049E000486000980499086003E0009840680090CF
:1049F000C5E7FFE700F00CF80499086105A901205C
:104A00000870FFE705A8007806B010BDFFFF0000A2
:104A100080B5FCF7D7FE80BD80B584B0FFF7F8FF06
:104A20000390434800680290FFE70298002831D0C5
:104A3000FFE7029840680190039802990A69801A7A
:104A4000898A884223D3FFE702988068002805D02E
:104A5000FFE702988268C1689047FFE703980299D0
:104A6000086102981621405E01280FDBFFE70299DA
:104A7000C88A401EC88202981621405E002804D1D0
:104A8000FFE7029800F008F8FFE7FFE7FFE701986B
:104A90000290CAE704B080BD82B000900098002860
:104AA00004D1FFE701A9002008703DE0009880686C
:104AB000002804D1FFE701A90020087034E0009825
:104AC0001B49096888420ED1FFE7009841681848E1
:104AD00001600068002805D0FFE715480168002044
:104AE0000860FFE714E000980068002805D0FFE7A1
:104AF0000099486809684860FFE700984068002806
:104B000005D0FFE70099086849680860FFE7FFE7FC
:104B10000099002048610861C860886048600860AA
:104B200001A901200870FFE701A8007802B07047D2
:104B30002005002084B00290019102980090009816
:104B400000787F2807DCFFE700980078019908606B
:104B5000012003904DE000980078E0210840C02833
:104B60000DD1FFE700990878C006400D49783F2233
:104B700011404018019908600220039039E0009824
:104B80000078F0210840E02811D1FFE7009908786B
:104B90000007000C4A789206120D801889783F228F
:104BA00011404018019908600320039021E000980B
:104BB0000078F8210840F02815D1FFE7009908781F
:104BC0004007C00A4A789206920B80188A789206AB
:104BD000120D8018C9783F221140401801990860D1
:104BE0000420039005E0FFE7FFE7FFE700200390C4
:104BF000FFE7039804B0704780B58CB00B90FFF7C7
:104C0000F1FA012801D0FFE7ABE0FFF7C1F8FFF7A9
:104C1000BBF80AA90420087009AA002004901070AB
:104C20000B98FEF791FA049808A90870FFE708A806
:104C300000780AA90978884200DB8FE008980B9970
:104C40008978401809A9087008A800780001039025
:104C50000B98097889004018C068FEF737FE039961
:104C60000190CE480090CE4B00221046FFF7EEFA9E
:104C70003D480078012827D1FFE709A800780128DE
:104C800005D0FFE709A8007802281CD1FFE70B98A0
:104C900009A9097889004018C068FEF717FEC049C5
:104CA000FFF75CFD014607A8017008A909780B0110
:104CB00008330278002002900121019100911946E9
:104CC000FFF726F9FFE721E009A8007807281CD1A3
:104CD000FFE70B9809A9097889004018C068FEF71A
:104CE000F5FDED49FFF73AFD014606A8017008A958
:104CF00009780B010833027800200290012101910C
:104D000000911946FFF704F9FFE7FFE709A80078CB
:104D10000B99497888421BD1FFE70B9809A90978BC
:104D200089004018C068FEF7D1FDDB49FFF716FD8A
:104D3000014605A8017008A90978090102780B4607
:104D40000F330120019000900020FFF713FAFFE7D6
:104D5000FFE70898401C08A9087068E7FFF7D4F837
:104D6000FFE70CB080BDC0468406002010B58EB0B1
:104D70000D90FFF737FA012801D0FFE777E0FFF742
:104D800007F8FFF701F80CA9042008700BAA00200F
:104D9000089010700D98FEF7D7F908980AA90870C6
:104DA000FFE70AA800780CA9097888425CDAFFE7D7
:104DB0000A980D99897841180BA8017000780D990F
:104DC0004978884234D1FFE70AA8069000780001AC
:104DD00003900D980BA90491097889004018C068C8
:104DE000FEF774FD03990190EA480090EA4B0593A1
:104DF000002207921046FFF729FA04990D980978C6
:104E000089004018C068FEF761FD0599FFF7A6FC10
:104E100006990346079809AA1370097809011278C0
:104E20000B460F33012401940094FFF7A3F915E01A
:104E30000AA80078000102900D980BA90978890052
:104E40004018C068FEF742FD02990190D1480090D9
:104E5000D14B00221046FFF7F9F9FFE7FFE70A9868
:104E6000401C0AA908709CE7FFF74EF8FFE70EB058
:104E700010BDC04610B58EB00D90FFF7B3F90128F4
:104E800001D0FFE787E0FEF783FFFEF77DFF0E20EE
:104E9000FEF71CFD0190BF480090BF4B0021089118
:104EA00008220846FFF7D2F908980CA903220A70D5
:104EB0000BAA10700D98FEF747F908980AA9087018
:104EC000FFE70AA800780CA90978884260DAFFE7B2
:104ED0000A980D99897841180BA8017000780D99EE
:104EE0004978884237D1FFE70AA806900078000188
:104EF000103003900D980BA904910978890040188F
:104F0000C068FEF7E3FC03990190E1480090E14B93
:104F10000593082007900022FFF798F904990D984F
:104F2000097889004018C068FEF7D0FC0599FFF7A2
:104F300015FC06990346079809AA137009780B0116
:104F400019461031127808321F330124019400945D
:104F5000FFF710F916E00AA800780001103002905F
:104F60000D980BA9097889004018C068FEF7AEFCBF
:104F700002990190C6480090C64B08200022FFF716
:104F800065F9FFE7FFE70A98401C0AA9087098E74F
:104F9000FEF7BAFFFFE70EB010BDC046E29D00006D
:104FA000208A000070B594B01390FFF71BF9012818
:104FB00001D0FFE76AE0FEF7EBFEFEF7E5FEB6483C
:104FC0000421415E0291807CC10031484018039069
:104FD000FEF776FC029B014603988900405800903A
:104FE0002C4A0FA80690102102F0CCFD0D20FEF7F0
:104FF0006DFC0190F74805900090F74B0793002552
:105000000495082228462946FFF720F905980699B5
:10501000079B019100900124284629462246FFF76C
:1050200015F906980799FFF799FB014607980EAA0C
:1050300008921170FFF782FB024608980DA90A70CA
:1050400002788020801AC20F801842080CA80270D3
:105050000C9A0E9BD3180BAA13700B784021C91A17
:10506000CB0FC9184B080AA90B700A9B0D9E9E19FD
:1050700009AB1E704057495752575B575B1E01944E
:105080000094FFF777F8FEF73FFFFFE714B070BD1D
:1050900064940000159E0000208A000070B592B054
:1050A0001190FFF79FF8012801D0FFE76CE0FEF7B1
:1050B0006FFEFEF769FE002010900F900E900D908D
:1050C00075484089002806D1FFE7314A0DA80F2115
:1050D00002F058FD07E0704843892C4A0DA80F21C3
:1050E00002F050FDFFE71120FEF7F0FB0190B948F8
:1050F00003900090B84B059300250295082228469E
:105100002946FFF7A3F80398059B0DA90491019187
:1051100000900124284629462246FFF797F8049874
:105120000599FFF71BFB014605980CAA0692117022
:10513000FFF704FB024606980BA90A70027880204C
:10514000801AC20F801842080AA802700A9A0C9BA3
:10515000D31809AA13700B784021C91ACB0FC918AC
:105160004B0808A90B70089B0B9E9E1907AB1E707D
:105170004057495752575B575B1E01940094FEF706
:10518000F9FFFEF7C1FEFFE712B070BDF19D000010
:10519000079E0000E29D0000208A000010B58CB040
:1051A0000B90FFF71FF8012801D0FFE76DE0FEF735
:1051B000EFFDFEF7E9FD0C20FEF788FB0190D148DA
:1051C0000090D14B04930021039108220846FFF779
:1051D0003DF80399049B30480222805E01902F48DD
:1051E000009001220846FFF731F804992C48FFF798
:1051F000B5FA014604980AAA1170FFF79FFA0499BC
:1052000009AA10702748FFF7A9FA01468020401A22
:10521000400808A90870244800780A2806D1FFE74A
:105220000A990898401808A908700CE01E480078F0
:10523000012807D1FFE70A9841000898401808A9FB
:105240000870FFE7FFE708980A99401807AA10704E
:1052500009A801784020401AC10F4018400806A94B
:1052600008700698099BC01805AB1870002408A8A0
:105270000057095712571B575B1E012401940094D5
:10528000FEF778FFFEF740FEFFE70CB010BDC0460A
:10529000E29D0000208A000084060020FE9D0000A0
:1052A000EF9D0000F69D00002C00002010B58EB090
:1052B0000D90FEF797FF012801D0FFE787E0FEF78A
:1052C00067FDFEF761FD1920FEF700FB0190CF4856
:1052D0000090CF4B0021089108220846FEF7B6FF48
:1052E00008980CA903220A700BAA10700D98FDF7FC
:1052F0002BFF08980AA90870FFE70AA800780CA9F4
:105300000978884260DAFFE70A980D998978411890
:105310000BA8017000780D994978884237D1FFE7D2
:105320000AA8069000780001103003900D980BA990
:105330000491097889004018C068FEF7C7FA0399FC
:105340000190F6480090F64B059308200790002244
:10535000FEF77CFF04990D98097889004018C06811
:10536000FEF7B4FA0599FFF7F9F90699034607988D
:1053700009AA137009780B01194610311278083206
:105380001F33012401940094FEF7F4FE16E00AA8EE
:1053900000780001103002900D980BA9097889005F
:1053A0004018C068FEF792FA02990190DB4800901D
:1053B000DB4B08200022FEF749FFFFE7FFE70A98D2
:1053C000401C0AA9087098E7FEF79EFDFFE70EB0A3
:1053D00010BDC046E29D0000208A000010B58EB0CE
:1053E0000D90FEF7FFFE012801D0FFE787E0FEF7F2
:1053F000CFFCFEF7C9FC1320FEF768FA0190C748FE
:105400000090C74B0021089108220846FEF71EFFB6
:1054100008980CA903220A700BAA10700D98FDF7CA
:1054200093FE08980AA90870FFE70AA800780CA95B
:105430000978884260DAFFE70A980D99897841185F
:105440000BA8017000780D994978884237D1FFE7A1
:105450000AA8069000780001103003900D980BA95F
:105460000491097889004018C068FEF72FFA039963
:105470000190EE480090EE4B059308200790002223
:10548000FEF7E4FE04990D98097889004018C06879
:10549000FEF71CFA0599FFF761F90699034607988C
:1054A00009AA137009780B011946103112780832D5
:1054B0001F33012401940094FEF75CFE16E00AA855
:1054C00000780001103002900D980BA9097889002E
:1054D0004018C068FEF7FAF902990190D34800908D
:1054E000D34B08200022FEF7B1FEFFE7FFE70A9842
:1054F000401C0AA9087098E7FEF706FDFFE70EB00A
:1055000010BDC046E29D0000208A000070B594B036
:105510001390FEF767FE012801D0FFE76EE0FEF76B
:1055200037FCFEF731FC0025029512951195109578
:105530000F9533480E21415E0391807CC1003148B4
:1055400040180490FEF7BCF9039B014604988900BB
:10555000405800902C4A0FA806900F2102F012FB31
:105560001420FEF7B3F90190F44805900090F44B35
:105570000793082228462946FEF768FE05980699F3
:10558000079B019100900124284629462246FEF7F8
:105590005DFE06980799FFF7E1F8014607980EAA05
:1055A00008921170FFF7CAF8024608980DA90A7010
:1055B00002788020801AC20F801842080CA802705E
:1055C0000C9A0E9BD3180BAA13700B784021C91AA2
:1055D000CB0FC9184B080AA90B700A9B0D9E9E1988
:1055E00009AB1E704057495752575B575B1E0194D9
:1055F0000094FEF7BFFDFEF787FCFFE714B070BD17
:1056000084060020649400000E9E0000E29D0000CD
:10561000208A000010B58EB00D90FEF7E3FD012842
:1056200001D0FFE777E0FEF7B3FBFEF7ADFB0CA977
:10563000042008700BAA0020089010700D98FDF748
:1056400083FD08980AA90870FFE70AA800780CA94A
:10565000097888425CDAFFE70A980D998978411841
:105660000BA8017000780D994978884234D1FFE782
:105670000AA806900078000103900D980BA90491E8
:10568000097889004018C068FEF720F90399019055
:10569000F6480090F64B0593002207921046FEF75D
:1056A000D5FD04990D98097889004018C068FEF767
:1056B0000DF90599FFF752F806990346079809AACC
:1056C00013700978090112780B460F3301240194F5
:1056D0000094FEF74FFD15E00AA800780001029043
:1056E0000D980BA9097889004018C068FEF7EEF8FC
:1056F00002990190DD480090DD4B00221046FEF734
:10570000A5FDFFE7FFE70A98401C0AA908709CE77F
:10571000FEF7FAFBFFE70EB010BDC046E29D0000A9
:10572000208A000010B58EB00D90FEF75BFD0128B9
:1057300001D0FFE777E0FEF72BFBFEF725FB0CA976
:10574000042008700BAA0020089010700D98FDF737
:10575000FBFC08980AA90870FFE70AA800780CA9C2
:10576000097888425CDAFFE70A980D998978411830
:105770000BA8017000780D994978884234D1FFE771
:105780000AA806900078000103900D980BA90491D7
:10579000097889004018C068FEF798F803990190CD
:1057A000EC480090EC4B0593002207921046FEF760
:1057B0004DFD04990D98097889004018C068FEF7DE
:1057C00085F80599FEF7CAFF06990346079809AAC6
:1057D00013700978090112780B460F3301240194E4
:1057E0000094FEF7C7FC15E00AA8007800010290BB
:1057F0000D980BA9097889004018C068FEF766F873
:1058000002990190D3480090D34B00221046FEF736
:105810001DFDFFE7FFE70A98401C0AA908709CE7F6
:10582000FEF772FBFFE70EB010BDC046E29D000020
:10583000208A000010B58EB00D90FEF7D3FC012831
:1058400001D0FFE777E0FEF7A3FAFEF79DFA0CA977
:10585000042008700BAA0020089010700D98FDF726
:1058600073FC08980AA90870FFE70AA800780CA939
:10587000097888425CDAFFE70A980D99897841181F
:105880000BA8017000780D994978884234D1FFE760
:105890000AA806900078000103900D980BA90491C6
:1058A000097889004018C068FEF710F80399019044
:1058B000F4480090F44B0593002207921046FEF73F
:1058C000C5FC04990D98097889004018C068FDF757
:1058D000FDFF0599FEF742FF06990346079809AABE
:1058E00013700978090112780B460F3301240194D3
:1058F0000094FEF73FFC15E00AA800780001029032
:105900000D980BA9097889004018C068FDF7DEFFE3
:1059100002990190DB480090DB4B00221046FEF715
:1059200095FCFFE7FFE70A98401C0AA908709CE76E
:10593000FEF7EAFAFFE70EB010BDC046E29D000098
:10594000208A000010B58EB00D90FEF74BFC0128A8
:1059500001D0FFE787E0FEF71BFAFEF715FA0CA966
:10596000032008700BAA0020089010700D98FDF716
:10597000EBFB0420FDF7AAFF089A0190C1480090B4
:10598000C14B10461146FEF761FC08980AA9087041
:10599000FFE70AA800780CA90978884260DAFFE7D7
:1059A0000A980D99897841180BA8017000780D9913
:1059B0004978884237D1FFE70AA8069000780001AD
:1059C000103003900D980BA90491097889004018B4
:1059D000C068FDF77BFF03990190F6480090F64BF5
:1059E0000593082007900022FEF730FC04990D98DB
:1059F000097889004018C068FDF768FF0599FEF72F
:105A0000ADFE06990346079809AA137009780B01A1
:105A100019461031127808321F3301240194009482
:105A2000FEF7A8FB16E00AA80078000110300290EB
:105A30000D980BA9097889004018C068FDF746FF4A
:105A400002990190DB480090DB4B08200022FEF712
:105A5000FDFBFFE7FFE70A98401C0AA9087098E7DA
:105A6000FEF752FAFFE70EB010BDC046E29D0000FF
:105A7000208A000070B592B01190FEF7B3FB0128A8
:105A800001D0FFE75FE0FEF783F9FEF77DF900251F
:105A9000029510950F950E950D952C48037C2C4A78
:105AA0000DA80490102102F06DF81520FDF70EFFEF
:105AB0000190C04803900090BF4B059308222846F0
:105AC0002946FEF7C3FB03980499059B01910090BA
:105AD0000124284629462246FEF7B8FB049805997A
